:100000000C9471030C9499030C9499030C94990328
:100010000C9499030C9499030C9499030C949903F0
:100020000C9499030C9499030C94EE060C946007BD
:100030000C9499030C9499030C9499030C949903D0
:100040000C9499030C9499030C9499030C949903C0
:100050000C9499030C9499030C9499030C94150532
:100060000C9499030C9499030C9499030C949903A0
:100070000C9499030C9499030C9499030C94990390
:100080000C9499030C9499030C9499030C94990380
:100090000C9499030C9499030C9499030C94990370
:1000A0000C9499030C9499030C949903000000009C
:1000B000003E5B4F5B3E3E6B4F6B3E1C3E7C3E1CEE
:1000C000183C7E3C181C577D571C1C5E7F5E1C0034
:1000D000183C1800FFE7C3E7FF0018241800FFE7EB
:1000E000DBE7FF30483A060E2629792926407F05AE
:1000F0000507407F05253F5A3CE73C5A7F3E1C1CC4
:1001000008081C1C3E7F14227F22145F5F005F5F83
:1001100006097F017F006689956A6060606060946F
:10012000A2FFA29408047E040810207E2010080874
:100130002A1C08081C2A08081E101010100C1E0C7F
:100140001E0C30383E3830060E3E0E060000000011
:100150000000005F00000007000700147F147F14F8
:10016000242A7F2A1223130864623649562050003D
:1001700008070300001C2241000041221C002A1C29
:100180007F1C2A08083E0808008070300008080814
:100190000808000060600020100804023E51494534
:1001A0003E00427F400072494949462141494D3352
:1001B0001814127F1027454545393C4A49493141B9
:1001C000211109073649494936464949291E000087
:1001D00014000000403400000008142241141414DC
:1001E0001414004122140802015909063E415D59C8
:1001F0004E7C1211127C7F494949363E41414122D1
:100200007F4141413E7F494949417F090909013EFA
:10021000414151737F0808087F00417F4100204021
:10022000413F017F081422417F404040407F021C33
:10023000027F7F0408107F3E4141413E7F0909094A
:10024000063E4151215E7F09192946264949493216
:1002500003017F01033F4040403F1F2040201F3FDC
:100260004038403F63140814630304780403615961
:10027000494D43007F4141410204081020004141A3
:10028000417F04020102044040404040000307084F
:100290000020545478407F2844443838444444284B
:1002A000384444287F385454541800087E090218F2
:1002B000A4A49C787F0804047800447D400020407A
:1002C000403D007F1028440000417F40007C0478BE
:1002D00004787C080404783844444438FC18242406
:1002E0001818242418FC7C08040408485454542486
:1002F00004043F44243C4040207C1C2040201C3C03
:100300004030403C44281028444C9090907C4464F9
:10031000544C44000836410000007700000041368C
:10032000080002010204023C2623263C1EA1A16112
:10033000123A4040207A3854545559215555794144
:100340002154547841215554784020545579400C1B
:100350001E527212395555555939545454593955FC
:100360005454580000457C410002457D420001453F
:100370007C40F0292429F0F0282528F07C545545AC
:10038000002054547C547C0A097F4932494949323F
:100390003248484832324A4848303A4141217A3A54
:1003A00042402078009DA0A07D39444444393D401E
:1003B00040403D3C24FF2424487E4943662B2FFCCB
:1003C0002F2BFF0929F620C0887E09032054547979
:1003D000410000447D413048484A32384040227A4A
:1003E000007A0A0A727D0D19317D2629292F2826C7
:1003F0002929292630484D402038080808080808CF
:100400000808382F10C8ACBA2F102834FA00007B27
:10041000000008142A142222142A1408950022002D
:1004200095AA005500AAAA55AA55AA000000FF00E7
:10043000101010FF00141414FF001010FF00FF1024
:1004400010F010F0141414FC001414F700FF000056
:10045000FF00FF1414F404FC141417101F10101FD5
:10046000101F1414141F00101010F0000000001FC3
:10047000101010101F10101010F010000000FF10CE
:100480001010101010101010FF10000000FF1400CA
:1004900000FF00FF00001F10170000FC04F41414FC
:1004A0001710171414F404F40000FF00F7141414C8
:1004B00014141414F700F7141414171410101F1048
:1004C0001F141414F4141010F010F000001F101F6B
:1004D0000000001F14000000FC140000F010F010D9
:1004E00010FF10FF141414FF141010101F00000050
:1004F00000F010FFFFFFFFFFF0F0F0F0F0FFFFFF54
:100500000000000000FFFF0F0F0F0F0F38444438AA
:10051000447C2A2A3E147E02020606027E027E02E5
:1005200063554941633844443C04407E201E200604
:10053000027E020299A5E7A5991C2A492A1C4C7241
:1005400001724C304A4D4D303048784830BC625AC8
:10055000463D3E494949007E0101017E2A2A2A2A58
:100560002A44445F444440514A444040444A514034
:100570000000FF0103E080FF000008086B6B0836F5
:1005800012362436060F090F060000181800000066
:100590001010003040FF0101001F01011E00191D55
:1005A0001712003C3C3C3C0000000000F0F89C8E20
:1005B0008783878E9CF8F00000FEFF03030303038C
:1005C000070EFCF80000FEFF0303030303070EFC05
:1005D000F80000FFFF00000000000000FFFF000027
:1005E000FEFF8383838383C7EE7C380000F8FC0E14
:1005F00007030303070EFCF800003F7FE0C0808084
:10060000C0E07F3FFFFF01010101010101FFFF0089
:1006100000FFFF0C0C0C0C1C3E77E3C100007FFFB9
:10062000C0C0C0C0C0E0703F1F00001F3F70E0C0EE
:10063000C0C0E0703F1F00007FFFC1C1C1C1C1E366
:10064000773E1C00001F3F70E0C0C0C0E0703F1F3D
:10065000000000000001FFFF01000000D5F08D1434
:10066000A1C881CFD9F1AF2000080B00020202011E
:100670000009040000010202000005240010010529
:100680002401010104240206052406000107058156
:100690000310004009040100020A000000070502DF
:1006A0000240000007058302400000040309041211
:1006B000010002EF020140412336800001010203E4
:1006C0000141726475696E6F204C4C430041726445
:1006D00075696E6F204C656F6E6172646F00530DAB
:1006E000180D11241FBECFEFDAE0DEBFCDBF11E041
:1006F000A0E0B1E0E6E8F0E202C005900D92AC3473
:10070000B107D9F725E0ACE4B1E001C01D92AE3DE0
:10071000B207E1F713E0C0E7D3E004C02197FE0180
:100720000E94340ECF36D107C9F70E94A30A0C9459
:1007300036100C940000CF92DF92EF92FF920F934D
:100740001F93CF93DF936C017A018B01C0E0D0E05F
:10075000CE15DF0581F0D8016D918D01D601ED91A7
:10076000FC910190F081E02DC6010995892B11F0D3
:100770002196EECF7E01C701DF91CF911F910F919E
:10078000FF90EF90DF90CF9008952D9A08958FB14C
:100790008095807F669B88601C9B846008952F9263
:1007A0003F924F925F926F927F928F929F92AF9201
:1007B000BF92CF92DF92EF92FF920F931F93CF934E
:1007C000DF93CDB7DEB728970FB6F894DEBF0FBE24
:1007D000CDBF9D838C836A30A1F4DC0155962C91AA
:1007E000559751968D919C915297B8E02B9F800D13
:1007F000911D1124EC81FD81928B818B108A1786CB
:10080000C6C06D3009F4C3C0AC81BD811F968D9107
:100810009C91509780389105BCF0EC81FD81258931
:10082000422F50E087859089F6E02F9F800D911D23
:100830001124AC81BD8150969C938E931F97569640
:100840002C9121118FC0A3C0EC81FD81E188F28839
:10085000F0E4EF16F1040CF7AC81BD815596BC9124
:10086000BE839C01E5E0BE9F200D311D11241216B0
:1008700013069CF6CB2ED12C970158E0B59F200D86
:10088000311D11241216130644F6AC81BD81549615
:100890005C90549753964C90B5E06B9FF0011124F7
:1008A0009F0124553F4F38872F83912C30E1732EC1
:1008B000EF81F8858490F5E09F1201C0812C8701BB
:1008C00028E0622E80FE02C0542D01C0552D51112A
:1008D00003C0541409F433C09C01F52FF170322E7B
:1008E000622F681B4E81641750F5B801A62FA01B1C
:1008F0005E81A51708F520383105D8F460347105FC
:10090000C0F45B01A501E1E041FDE4E040FDEE0F34
:1009100042FDE295487F749ED0011124A30DBA8355
:10092000A983A65ABE4FBC90BE2AF11101C0BE26B3
:10093000BC926F5F7F4FDACF2F5F3F4FD0CF86944F
:100940006A940C0D1D1D6110BDCF93948C0D9D1DDF
:100950002F8138852F5F3F4F38872F8336E09312E2
:10096000A7CF5BCF6AEF64039001659F300D112420
:1009700020583F4F2817390754F48C819D81DC01A2
:10098000ED91FC910190F081E02D6AE0099581E004
:1009900090E028960FB6F894DEBF0FBECDBFDF9172
:1009A000CF911F910F91FF90EF90DF90CF90BF906C
:1009B000AF909F908F907F906F905F904F903F90FF
:1009C0002F9008950895089580E090E008950C9484
:1009D000E70DBC0180E090E00C949E090E9421107C
:1009E0003FB7F8948091530190915401A091550123
:1009F000B091560126B5A89B05C02F3F19F001966E
:100A0000A11DB11D3FBFBA2FA92F982F8827820F94
:100A1000911DA11DB11DBC01CD0142E0660F771FE4
:100A2000881F991F4A95D1F708951F920F920FB60C
:100A30000F9211242F933F938F939F93AF93BF9364
:100A400080914F0190915001A0915101B0915201BC
:100A500030914E0123E0230F2D3720F40196A11D84
:100A6000B11D05C026E8230F0296A11DB11D2093DC
:100A70004E0180934F0190935001A0935101B09388
:100A800052018091530190915401A0915501B09170
:100A900056010196A11DB11D8093530190935401FD
:100AA000A0935501B0935601BF91AF919F918F9143
:100AB0003F912F910F900FBE0F901F90189520918E
:100AC0005901211103C08FEF9FEF08955FB7F8948C
:100AD00022E02093E9002091F20030E01216130684
:100AE00014F421E030E0422FFC0184E6415038F05C
:100AF0002898809389059091F1009193F7CF211563
:100B0000310521F08091F200882319F05FBFC901FF
:100B100008958BE68093E800F9CF2FB7F89483E02F
:100B20008093E9009091E800892F807295FF04C0BE
:100B30009091F20080E4891B2FBF08958091810578
:100B400081110DC082E080937D0584E080937E0555
:100B50001092800510927F0581E0809381058DE7DA
:100B600095E00895CF93DF931F92CDB7DEB76983E9
:100B7000DC01ED91FC910280F381E02D41E050E039
:100B8000BE016F5F7F4F09950F90DF91CF91089560
:100B900083E08093E9008091F200882319F08AE3D2
:100BA0008093E80008950E948D0590E00895CF930A
:100BB000DF931F92CDB7DEB7FC018485958597FD45
:100BC00005C02FEF3FEF358724870BC0CE0101967C
:100BD0000E945F05019719F4898190E002C08FEFB0
:100BE0009FEF0F90DF91CF9108950F931F93CF93B5
:100BF000DF931F92CDB7DEB78C01FC01848595850C
:100C000097FF0EC0CE0101960E945F05019719F46F
:100C1000898190E002C08FEF9FEFF801958784876C
:100C2000F801848595850F90DF91CF911F910F91E9
:100C30000895FC018485958597FD0BC09FB7F894B6
:100C400082E08093E9008091F2009FBF90E00196DE
:100C500008959FB7F89482E08093E9008091F200B4
:100C60009FBF90E008954091790550917A052091B9
:100C700077053091780542175307B4F49091E80056
:100C80009570E1F39091E80092FD19C08093F10016
:100C90008091790590917A0501968F739927892B18
:100CA00019F48EEF8093E8008091790590917A0590
:100CB000019690937A058093790581E0089580E00C
:100CC0000895DF92EF92FF920F931F93CF93DF93DC
:100CD000D82E8A017B01E40EF51EEB01CE15DF054F
:100CE00071F0D7FE03C0FE01849101C088810E948B
:100CF000330621968111F2CF8FEF9FEF01C0C8011B
:100D0000DF91CF911F910F91FF90EF90DF900895A9
:100D10000F931F93CF93DF931F92CDB7DEB782E07F
:100D2000898342E450E069E676E080E80E9461064B
:100D30000E949E05DC0112960D911C9113970115DE
:100D4000110589F0D801ED91FC910280F381E02D2D
:100D5000BE016F5F7F4FC801099597FD04C0F80180
:100D600000851185ECCF89810F90DF91CF911F9184
:100D70000F910895615030F02091F100FC01208323
:100D80000196F8CF289884E680938905089580E03D
:100D9000EAE5F1E081118FEF002481938193819343
:100DA00081930394D1F70895EAE5F1E0A0E0B8E07B
:100DB00000800EBC8111012C1197A0FDFDCF019286
:100DC000B9F70DB4089520916A05282329F490916C
:100DD0006905982381E009F480E008951F920F923D
:100DE0000FB60F9211248F939F938091E100909101
:100DF000E100937F9093E10083FF0FC01092E90020
:100E000091E09093EB001092EC0092E39093ED0050
:100E10001092590198E09093F00082FF20C093E077
:100E20009093E9009091F200992319F09AE390933E
:100E3000E80090917C05992339F090917C059150C0
:100E400090937C05992389F190918905992339F034
:100E500090918905915090938905992341F184FFE0
:100E600010C08091E2008E7E81608093E2008091CC
:100E7000E1008F7E8093E100809158018E7E806139
:100E800011C080FF16C08091E2008E7E8061809349
:100E9000E2008091E1008E7E8093E1008091580114
:100EA0008E7E81608093580104C05D9ACDCF289AD0
:100EB000D6CF9F918F910F900FBE0F901F901895D6
:100EC0001F920F920FB60F921124CF92DF92EF92E2
:100ED000FF920F931F932F933F934F935F936F93C3
:100EE0007F938F939F93AF93BF93EF93FF93CF9392
:100EF000DF93CDB7DEB76C97DEBFCDBF1092E900B0
:100F00008091E80083FFFBC168E0CE0145960E9416
:100F1000BA0682EF8093E8008D8987FF05C0909123
:100F2000E80090FFFCCF03C09EEF9093E800982F5D
:100F3000907609F0C6C09E894F89588D2F89F88C0C
:100F400091110CC0803829F4809157018093F100F1
:100F500002C01092F1001092F10045C1913051F49D
:100F6000811141C14130510509F03DC180915701C6
:100F70008D7F0BC0933061F4811135C14130510533
:100F800009F031C1809157018260809357012BC1D4
:100F9000953049F48091E80080FFFCCF822F806873
:100FA0008093E30020C1963009F05EC00B8D1C8D4C
:100FB00022E01092E90010927A0510927905F2125F
:100FC00032C010927805109277050E94880699E049
:100FD000BE016F5F7F4FDB01E92F1D92EA95E9F7B4
:100FE0009983FA8291E09E8390EA98879AEF998795
:100FF0002091790530917A05275F3F4F3C832B8301
:101000008D831092E90010927A0510927905109361
:1010100078050093770549E050E080E00E94610682
:101020000E948806E0C010937805009377050E941F
:101030009E05DC0112960D911C9113970115110567
:1010400009F4BBC0D801ED91FC910480F581E02D3D
:10105000BE016B5E7F4FC8010995009709F0C7C0BC
:10106000F80100851185EACF973009F445C1983021
:1010700021F481E08093F100B6C0993009F0B3C04B
:10108000837009F039C1E3E1F1E081E031E096E3FA
:101090002081211109C08EE78093EA001092EA00B6
:1010A0008F89809359019FC08093E9003093EB00B2
:1010B00021912093EC009093ED008F5F873041F7F2
:1010C000EACF8B8D9C8D1092E90010927A051092D8
:1010D00079059093780580937705898D811153C0A8
:1010E0008E899D89913A49F4813209F005C147E022
:1010F00050E064E071E080E0BBC0913209F0FCC0D8
:10110000833269F48F89988DA0E0B0E0809300016C
:1011100090930101A0930201B093030164C0803257
:1011200069F48091E80082FFFCCF67E084E091E001
:101130000E94BA068BEF8093E80055C0823209F016
:1011400052C08F8980930B01EEEFFFE78591949158
:101150008B3F9C4D19F0E0E0F8E002C0EEEFFAE0C2
:101160008091040190910501A0910601B0910701C1
:10117000803B9440A105B10509F09EC080910B0110
:1011800080FF79C099C00E949E05FC0102811381F5
:101190000115110509F4B0C0D801ED91FC91019041
:1011A000F081E02DBE016B5E7F4FC8010995811172
:1011B0001AC0F80100851185EBCFF1E0FF1609F4A4
:1011C0004EC0F3E0FF1298C08F89882309F44AC00B
:1011D000823089F440E860E18DEC96E00E941E0DBB
:1011E000882309F489C08EEF8093E80088C0181620
:1011F0001906CCF381C0813029F440E86BE081EC22
:1012000096E0ECCF833009F077C00E949E05DC01A8
:101210001296ED90FC9013978E010F5F1F4F68019F
:10122000E114F10479F0D701ED91FC910680F7818A
:10123000E02DB801C7010995080F111DF701E084E1
:10124000F184EECFD8011C92F60101900020E9F75D
:101250003197BF016C197D0940E0C601BFCF6FEA2D
:1012600076E002C06BEA76E0FB01449150E080E852
:101270000E946106B8CFEE3F2AE0F20751F080816C
:1012800091818737A7E79A0721F09093FF0A80930F
:10129000FE0A87E797E791838083809160008093BF
:1012A0007B059BE088E10FB6F894A89580936000D9
:1012B0000FBE9093600097CF8081918187379747C9
:1012C00009F091CFA89580916000886180936000BB
:1012D00080917B0580936000EE3FBAE0FB0739F018
:1012E0008091FE0A9091FF0A918380837CCF1092B7
:1012F000FF0A1092FE0A77CF81E28093EB006C9692
:101300000FB6F894DEBF0FBECDBFDF91CF91FF9136
:10131000EF91BF91AF919F918F917F916F915F916D
:101320004F913F912F911F910F91FF90EF90DF9080
:10133000CF900F900FBE0F901F9018958F929F9295
:10134000AF92BF92CF92DF92EF92FF926B017C013E
:101350000E94F0044B015C01C114D104E104F104CA
:10136000F1F00E94F004DC01CB0188199909AA0967
:10137000BB09883E9340A105B10570F321E0C21A74
:10138000D108E108F10888EE880E83E0981EA11CC0
:10139000B11CC114D104E104F10419F7DDCFFF90B1
:1013A000EF90DF90CF90BF90AF909F908F90089577
:1013B0008F929F92AF92BF92CF92DF92EF92FF9265
:1013C0000F931F93CF93DF936C017B018A01809170
:1013D0000B01882309F45CC080915901882309F42A
:1013E00057C08091580180FF05C08091E000826065
:1013F0008093E000E801B12C8AEFA82E93E0892EBB
:101400002AE3922E209711F4BB20D9F10E948D057A
:1014100081110AC0AA94AA20D9F161E070E080E0AD
:1014200090E00E949E09EECF282F30E0C217D3072C
:101430000CF48C2F9FB7F8948092E9002091E8007B
:1014400025FF1DC0282F30E0C21BD30BF7018150B0
:1014500020F041914093F100FACFE20EF31EBB2041
:1014600019F09092E8000AC08091E80085FD07C05D
:101470009092E800BB24B394209709F0B12C9FBF51
:10148000C1CF5D9884E680937C051016110644F068
:1014900081E090E0F6019383828380E090E001C0D8
:1014A000C801DF91CF911F910F91FF90EF90DF90D6
:1014B000CF90BF90AF909F908F9008950F931F9300
:1014C000CF93DF938C0181E090E00E94E70480FFDE
:1014D00032C08AE090E00E94E7049FEF980F9E3FA1
:1014E00050F522E330E0D80150963C932E931F979D
:1014F00028E330E052963C932E935197CBE0D0E016
:10150000D801ED91FC910190F081E02D682FC80188
:101510000995CE010E94E7042196C131D10581F7DA
:1015200080E00E94D40688EE93E0DF91CF911F9176
:101530000F910C94E904DF91CF911F910F910895C1
:1015400004970C945E0A789484B5826084BD84B557
:10155000816084BD85B5826085BD85B5816085BDAE
:1015600080916E00816080936E0010928100809166
:1015700081008260809381008091810081608093EE
:101580008100809180008160809380008091910033
:10159000826080939100809191008160809391009E
:1015A000809190008160809390008091C100846060
:1015B0008093C1008091C10082608093C1008091BE
:1015C000C10081608093C1008091C30081608093DD
:1015D000C3008091C00082608093C0008091C200EF
:1015E00081608093C20080917A00846080937A0049
:1015F00080917A00826080937A0080917A00816085
:1016000080937A0080917A00806880937A001092AB
:10161000590110925701109258018091D7008160B2
:101620008093D70080EA8093D80089B5806189BD16
:1016300089B5826089BD09B400FEFDCF61E070E02C
:1016400080E090E00E949E098091D8008F7C8061AC
:101650008093D8008091E000807F8093E0008091AB
:10166000E1008E7E8093E1008DE08093E200559A48
:10167000209A81EC80937C0085B1806F85B984B11C
:10168000877E84B984B1876E84B95E9A5F988AB187
:10169000806D8AB9769A6E9881B3806F81BB899884
:1016A00080B38D7080BB80E58CBD81E08DBD85E011
:1016B00090E00E94E9045F9A85E090E00E94E904CE
:1016C0005E985C98ECE5F6E089E696E024912EBD04
:1016D00000000DB407FEFDCF31968E179F07B1F7BE
:1016E0005C9A81E8809364008091650081608093BA
:1016F000650080E00E94D4060E94C70387FF24C0D3
:101700005C9885EA8EBD00000DB407FEFDCF5C9AA3
:101710002E982F982D9880916400806280936400A9
:1017200081E083BF889513BEFCCF2D980E94C7032C
:101730008478843871F00E94C7038471843131F158
:1017400088EC90E00E94E9040E94C70382FDEDCF7F
:101750003AC00E94C50388EC90E00E94E9042F98EB
:1017600082E090E00E94E70D8F3F29F06FEF82E06A
:1017700090E00E94EF0D84EF91E00E94E9042F9A1F
:101780000E94C70384788438D9F3D5CF0E94C5035B
:1017900088EC90E00E94E9042E9882E090E00E949C
:1017A000E70D882329F060E082E090E00E94EF0DD1
:1017B00084EF91E00E94E9042E9A0E94C70384718D
:1017C0008431D9F3BDCF0E94C50382E090E00E942E
:1017D000E704882319F03E9A3F9A02C03E983F984A
:1017E00081E090E00E94E704282F2470D22E81FF30
:1017F00083C021112E98C0EFDFEF08E010E00E94B7
:10180000C70386FF05C02E9A2F9A0E94C50374C095
:10181000DD2029F0C430D10511F42E9A2F9881E0F3
:101820000E94D4069E01D7FF04C0222733272C1B19
:101830003D0B27703327CE01D7FD0796E3E0959542
:101840008795EA95E1F7D7FF05C00197A801421BEC
:10185000530B9A01AC015695542F44275795479541
:10186000465A5E4FA0E0B0E04801821A930A8F3FCB
:101870006FEF96074CF40196A85ABF4F40585F4F40
:10188000A03BB105A1F71EC05A01E4E9AE0EB11CA0
:101890007A0160E070E08F3FFFEF9F0709F4A1C07D
:1018A000FB01EA0FFB1FE455FA4FE491F0E03F0122
:1018B000022E01C0660C0A94EAF7F70174886728C3
:1018C000648A8FC080E00E94D4068FE090E00E947E
:1018D000E9042196C931D10509F091CFDD2011F03D
:1018E0002F9A2D9880E991E00E94E9040E94C50397
:1018F00080E695E00E945E0A82E390E00E94E9049F
:101900000E94C7038111F8CF0E94C706109272058A
:10191000109271051092700510926F0510924D0192
:1019200010924C0100E410E050E0E52E50E0F52E5E
:101930006BE1A62EB12CC1E0D0E00E94C706109248
:101940007205109271051092700510926F058091CA
:10195000690580936A050E94C70380936905809199
:101960004C0190914D01892B91F580915E059091EC
:101970005F059C01220F331F820F931F0196980170
:10198000281B390B3093700520936F05B0927205B8
:10199000A092710560915A0570915B056115710502
:1019A00061F0FB0101900020E9F73197AF01461B80
:1019B000570B80E695E00E949B0388E00E94E306B7
:1019C000811131C084E00E94E30681112CC080E0C7
:1019D0000E94D406E114F10409F4AFCF0E94000084
:1019E000ACCF2115310591F0FB01EA0FFB1FE45547
:1019F000FA4FE491F0E03F01082C02C0759467941F
:101A00000A94E2F7F5017080672860826F5F7F4F6C
:101A1000FFEFAF1ABF0AEFEFEE1AFE0A6835710545
:101A200009F039CF28CFD0934D01C0934C01CFCFCF
:101A300080915A0590915B050C94D20EDF92EF9243
:101A4000FF920F931F93CF93DF93D82EF92EE42E9E
:101A5000062F10E0C8010196880F0E94330683E02C
:101A60000E943306CD2DDF2D0C0F1D1FC017D1078F
:101A700089F0E7FE03C0FE01849101C088810E94C5
:101A80003306F82E80E00E9433068F2121968111C3
:101A9000EDCF01C081E0DF91CF911F910F91FF90B9
:101AA000EF90DF90089510928D0510928C0588EECE
:101AB00093E0A0E0B0E080938E0590938F05A09313
:101AC0009005B09391058DE191E090938B05809303
:101AD0008A058FEF9FEF909397058093960510925C
:101AE0006305109262051092690510926A0580E103
:101AF00080936B05109268051092670510926D0532
:101B00008FE291E090936105809360058DE391E011
:101B100090936505809364051092700510926F058F
:101B2000109272051092710581E0809373051092F6
:101B30007405809375051092760510925B051092DE
:101B40005A0510925D0510925C0510925F05109287
:101B50005E056DE070E080E090E00E945B0F009712
:101B600099F090935B0580935A052CE030E0309318
:101B70005D0520935C0520915E0530915F05232B68
:101B8000C1F4FC01108215C080915A0590915B054B
:101B9000009711F00E94D20E10925B0510925A0528
:101BA00010925F0510925E0510925D0510925C0523
:101BB00008958CE090E090935F0580935E056FE35D
:101BC00071E080915A0590915B050C942F10F99962
:101BD000FECF92BD81BDF89A992780B50895262F32
:101BE000F999FECF1FBA92BD81BD20BD0FB6F89402
:101BF000FA9AF99A0FBE019608952F923F924F924A
:101C00005F926F927F928F929F92AF92BF92CF928C
:101C1000DF92EF92FF920F931F93CF93DF93CDB795
:101C2000DEB7CA1BDB0B0FB6F894DEBF0FBECDBF0D
:101C300009942A88398848885F846E847D848C84DE
:101C40009B84AA84B984C884DF80EE80FD800C81E7
:101C50001B81AA81B981CE0FD11D0FB6F894DEBFCA
:101C60000FBECDBFED010895EE0FFF1F0590F4915B
:101C7000E02D09940F931F93CF93DF93823091054A
:101C800010F482E090E0E091DC05F091DD0520E0C9
:101C900030E0A0E0B0E0309719F14081518102813D
:101CA000138148175907C8F08417950769F41097EE
:101CB00031F012960C93129713961C9327C0009341
:101CC000DC051093DD0522C02115310519F04217FE
:101CD000530718F49A01BD01EF01DF01F801DBCFD2
:101CE00021153105F9F0281B390B2430310580F41A
:101CF0008A819B816115710521F0FB0193838283A9
:101D000004C09093DD058093DC05FE01329644C04B
:101D1000FE01E20FF31F8193919322503109398321
:101D200028833AC02091DA053091DB05232B41F45A
:101D300020910E0130910F013093DB052093DA05DD
:101D400020910C0130910D012115310541F42DB781
:101D50003EB74091100150911101241B350BE091C9
:101D6000DA05F091DB05E217F307A0F42E1B3F0B19
:101D70002817390778F0AC014E5F5F4F24173507FD
:101D800048F04E0F5F1F5093DB054093DA058193B7
:101D9000919302C0E0E0F0E0CF01DF91CF911F917D
:101DA0000F910895CF93DF93009709F481C0FC0150
:101DB000329713821282A091DC05B091DD05109755
:101DC00081F420813181820F931F2091DA053091B7
:101DD000DB052817390751F5F093DB05E093DA05A9
:101DE00067C0ED0120E030E0CE17DF0740F44A8104
:101DF0005B819E0141155105F1F0EA01F5CFD383D6
:101E0000C28340815181840F951FC817D90759F4A7
:101E100088819981840F951F0296918380838A819E
:101E20009B81938382832115310529F4F093DD058D
:101E3000E093DC053DC0E901FB83EA8349915991B8
:101E4000C40FD51FEC17FD0761F480819181840FC9
:101E5000951F0296E90199838883828193819B83F0
:101E60008A83E0E0F0E012968D919C9113970097A1
:101E700019F0FD01DC01F7CF8D919C9111979D0127
:101E80002E5F3F4F820F931F2091DA053091DB05C3
:101E90002817390769F4309729F41092DD0510925C
:101EA000DC0502C013821282B093DB05A093DA0531
:101EB000DF91CF910895A0E0B0E0E1E6FFE00C945F
:101EC000010EEC01009721F4CB010E943A0EB4C040
:101ED000FC01E60FF71F9C0122503109E217F307BE
:101EE00008F4A8C0D9010D911C9111970617170786
:101EF000B0F00530110508F49BC0C801049786179F
:101F0000970708F495C002501109061B170B01939F
:101F100011936D937C93CF010E94D20E89C05B0117
:101F2000A01AB10A4C01800E911EA091DC05B0915F
:101F3000DD05612C712CE12CF12C109709F446C0C1
:101F40008D919C911197A815B905B1F56C0142E0EE
:101F5000C40ED11CCA14DB0478F14C018A189B080A
:101F6000640142E0C40ED11C1296BC9012971396E5
:101F7000AC91B5E0CB16D10440F0B282A38391823C
:101F80008082D9016D937C9309C00E5F1F4F800F33
:101F9000911FF90191838083EB2DFA2FE114F10455
:101FA00031F0D7011396FC93EE93129741C0F09352
:101FB000DD05E093DC053CC06816790608F43C01B9
:101FC0007D0112960D90BC91A02DB7CF8091DA05BE
:101FD0009091DB0588169906E1F466167706C8F439
:101FE00080910C0190910D01009741F48DB79EB73F
:101FF0004091100150911101841B950BE817F907CE
:10200000C8F4F093DB05E093DA05F901718360838E
:102010000FC0CB010E943A0E7C01009759F0A80135
:10202000BE010E942610CE010E94D20EC70104C03C
:10203000CE0102C080E090E0CDB7DEB7EEE00C94B8
:102040001D0E81E090E0F8940C943610FB01DC0149
:1020500002C001900D9241505040D8F70895FB0105
:10206000DC0101900D920020E1F7089513E0C0E734
:10207000D3E004C0FE010E94340E2196C137D1077F
:06208000C9F7F894FFCF40
:10208600FFFFFFFF00E10000000000000000DE058A
:10209600800000C1808100000000000000B205D869
:1020A60009D305C8051906D705F50500000000CFB8
:1020B600039B03E404E3045E0AFCFF0000A00A435A
:0C20C6006F646554656D706C617465009A
:00000001FF
