:100000000C9478030C94A0030C94A0030C94A0030C
:100010000C94A0030C94A0030C94A0030C94A003D4
:100020000C94A0030C94A0030C94570A0C94820B1C
:100030000C94A0030C94A0030C94A0030C94A003B4
:100040000C94A0030C94A0030C94A0030C94A003A4
:100050000C94A0030C94A0030C94A0030C94FA0D30
:100060000C94A0030C94A0030C94A0030C94A00384
:100070000C94A0030C94A0030C94A0030C94A00374
:100080000C94A0030C94A0030C94A0030C94A00364
:100090000C94A0030C94A0030C94A0030C94A00354
:1000A0000C94A0030C94A0030C94A0032007370722
:1000B000520740074907270730075B07F0F89C8E77
:1000C0008783878E9CF8F00000FEFF030303030381
:1000D000070EFCF80000FEFF0303030303070EFCFA
:1000E000F80000FFFF00000000000000FFFF00001C
:1000F000FEFF8383838383C7EE7C380000F8FC0E09
:1001000007030303070EFCF800003F7FE0C0808078
:10011000C0E07F3FFFFF01010101010101FFFF007E
:1001200000FFFF0C0C0C0C1C3E77E3C100007FFFAE
:10013000C0C0C0C0C0E0703F1F00001F3F70E0C0E3
:10014000C0C0E0703F1F00007FFFC1C1C1C1C1E35B
:10015000773E1C00001F3F70E0C0C0C0E0703F1F32
:10016000000000000001FFFF01000000D5F08D1429
:10017000A1C881CFD9F1AF200000000000003E5B94
:100180004F5B3E3E6B4F6B3E1C3E7C3E1C183C7EE4
:100190003C181C577D571C1C5E7F5E1C00183C18C9
:1001A00000FFE7C3E7FF0018241800FFE7DBE7FFC5
:1001B00030483A060E2629792926407F0505074052
:1001C0007F05253F5A3CE73C5A7F3E1C1C08081C13
:1001D0001C3E7F14227F22145F5F005F5F06097F51
:1001E000017F006689956A606060606094A2FFA2EA
:1001F0009408047E040810207E201008082A1C0899
:10020000081C2A08081E101010100C1E0C1E0C30A2
:10021000383E3830060E3E0E06000000000000009A
:100220005F00000007000700147F147F14242A7F5A
:100230002A12231308646236495620500008070327
:1002400000001C2241000041221C002A1C7F1C2AA5
:1002500008083E08080080703000080808080800F8
:100260000060600020100804023E5149453E0042F3
:100270007F400072494949462141494D33181412C3
:100280007F1027454545393C4A49493141211109EB
:10029000073649494936464949291E0000140000DD
:1002A00000403400000008142241141414141400F7
:1002B0004122140802015909063E415D594E7C1243
:1002C00011127C7F494949363E414141227F4141DB
:1002D000413E7F494949417F090909013E41415158
:1002E000737F0808087F00417F41002040413F01A3
:1002F0007F081422417F404040407F021C027F7FE4
:100300000408107F3E4141413E7F090909063E41F4
:1003100051215E7F09192946264949493203017F47
:1003200001033F4040403F1F2040201F3F403840D6
:100330003F631408146303047804036159494D436F
:10034000007F4141410204081020004141417F04E7
:1003500002010204404040404000030708002054CE
:100360005478407F2844443838444444283844442E
:10037000287F385454541800087E090218A4A49CFD
:10038000787F0804047800447D40002040403D0010
:100390007F1028440000417F40007C047804787C72
:1003A000080404783844444438FC182424181824D9
:1003B0002418FC7C08040408485454542404043FC2
:1003C00044243C4040207C1C2040201C3C403040C9
:1003D0003C44281028444C9090907C4464544C44F5
:1003E0000008364100000077000000413608000296
:1003F000010204023C2623263C1EA1A161123A40C0
:1004000040207A3854545559215555794121545436
:100410007841215554784020545579400C1E527231
:10042000123955555559395454545939555454580D
:100430000000457C410002457D420001457C40F0C2
:10044000292429F0F0282528F07C54554500205413
:10045000547C547C0A097F49324949493232484820
:100460004832324A4848303A4141217A3A424020A3
:1004700078009DA0A07D39444444393D4040403D32
:100480003C24FF2424487E4943662B2FFC2F2BFF5E
:100490000929F620C0887E090320545479410000C0
:1004A000447D413048484A32384040227A007A0A36
:1004B0000A727D0D19317D2629292F2826292929FF
:1004C0002630484D40203808080808080808083831
:1004D0002F10C8ACBA2F102834FA00007B00000897
:1004E000142A142222142A14089500220095AA0026
:1004F0005500AAAA55AA55AA000000FF0010101026
:10050000FF00141414FF001010FF00FF1010F01073
:10051000F0141414FC001414F700FF0000FF00FF97
:100520001414F404FC141417101F10101F101F14BF
:1005300014141F00101010F0000000001F10101005
:10054000101F10101010F010000000FF10101010FD
:100550001010101010FF10000000FF140000FF002A
:10056000FF00001F10170000FC04F41414171017EC
:100570001414F404F40000FF00F7141414141414F9
:1005800014F700F7141414171410101F101F14146C
:1005900014F4141010F010F000001F101F000000E1
:1005A0001F14000000FC140000F010F01010FF10E9
:1005B000FF141414FF141010101F00000000F0109E
:1005C000FFFFFFFFFFF0F0F0F0F0FFFFFF00000083
:1005D0000000FFFF0F0F0F0F0F38444438447C2AF0
:1005E0002A3E147E02020606027E027E02635549FE
:1005F00041633844443C04407E201E2006027E02B3
:100600000299A5E7A5991C2A492A1C4C7201724C33
:10061000304A4D4D303048784830BC625A463D3EF5
:10062000494949007E0101017E2A2A2A2A2A444496
:100630005F444440514A444040444A51400000FF16
:100640000103E080FF000008086B6B0836123624B7
:1006500036060F090F0600001818000000101000E1
:100660003040FF0101001F01011E00191D1712007B
:100670003C3C3C3C0000000000080B000202020170
:100680000009040000010202000005240010010519
:100690002401010104240206052406000107058146
:1006A0000310004009040100020A000000070502CF
:1006B0000240000007058302400000040309041201
:1006C000010002EF020140412336800001010203D4
:1006D0000141726475696E6F204C4C430041726435
:1006E00075696E6F204C656F6E6172646F005A138E
:1006F00011241FBECFEFDAE0DEBFCDBF11E0A0E0D6
:10070000B1E0E6EBFCE202C005900D92A837B1071C
:10071000D9F726E0A8E7B1E001C01D92A232B207E6
:10072000E1F713E0C8E7D3E004C02197FE010E947F
:100730004314C737D107C9F70E94440E0C945916C9
:100740000C940000CF92DF92EF92FF920F931F93D1
:10075000CF93DF936C017A018B01C0E0D0E0CE151E
:10076000DF0581F0D8016D918D01D601ED91FC91ED
:100770000190F081E02DC6010995892B11F0219699
:10078000EECF7E01C701DF91CF911F910F91FF90B6
:10079000EF90DF90CF9008950895089580E090E065
:1007A00008950E944416EF92FF920F931F93CF93E8
:1007B000DF93EC017B018A0188819981009729F000
:1007C0002A813B8124173507F8F4B8016F5F7F4F0A
:1007D0000E947E15009759F0998388831B830A83B2
:1007E0002C813D81232B81F4FC0110820DC0888176
:1007F0009981009711F00E94F514198218821D82C8
:100800001C821B821A8207C01D830C83B70188815A
:1008100099810E945216CE01DF91CF911F910F91C5
:10082000FF90EF9008952D9A0895BC0180E090E02C
:100830000C94C00D8FB18095807F669B88601C9B57
:10084000846008950C94C01380389105B8F4603426
:100850007105A0F490E121E061FD24E060FD220F2C
:1008600062FD2295687F969FD0011124A80FA5569E
:10087000BE4F8C91822B40FF82278C9308952F923C
:100880003F924F925F926F927F928F929F92AF9220
:10089000BF92CF92DF92EF92FF920F931F93CF936D
:1008A000DF93CDB7DEB727970FB6F894DEBF0FBE44
:1008B000CDBF9F838E836A30A1F4DC0155962C91C5
:1008C000559751968D919C915297B8E02B9F800D32
:1008D000911D1124EE81FF81928B818B108A1786E6
:1008E000ADC06D3009F4AAC0AE81BF811F960D91D5
:1008F0001C91509700381105BCF0EE81FF812589CD
:10090000422F50E087859089F6E02F9F800D911D42
:100910001124AE81BF8150969C938E931F9756965B
:100920002C91211175C08AC0EE81FF818188928847
:10093000F0E48F1691040CF7AE81BF8155963C9080
:10094000C801B5E03B9E800D911D112418161906B3
:10095000A4F6432C512CC401E8E03E9E800D911D6D
:100960001124181619064CF6AE81BF815496BC911D
:10097000BC83EE81FF81F389FD8325E0629FB00196
:100980001124CB0187589E4F3C011982F30124901A
:10099000F981F53009F4212C640128E02B8320FE35
:1009A00003C03D813A8302C08C818A839A81911170
:1009B00004C0AC81BD81AB17B9F078018E2D801BCE
:1009C000831590F456018A2D8C19831548F44A81B9
:1009D000B501C7010E942404EFEFAE1ABE0AF3CF9F
:1009E000FFEFEF1AFF0AEACF26942B8121502B83C9
:1009F000C40CD51C2111D3CF39813F5F3983040D3D
:100A0000151DC30101963C01363009F0BFCF75CFEB
:100A10006AEF64039001659F300D112420583F4F09
:100A2000281739075CF4AE81BF81ED91FC911197D5
:100A30000190F081E02D6AE0CD01099581E090E020
:100A400027960FB6F894DEBF0FBECDBFDF91CF91D2
:100A50001F910F91FF90EF90DF90CF90BF90AF90DC
:100A60009F908F907F906F905F904F903F902F90CE
:100A700008950F931F93CF93DF9300D000D000D041
:100A8000CDB7DEB780E490E09093AB058093AA05E4
:100A90001092AD051092AC0585E491E00E94DC084F
:100AA0001A8219821C821B821E821D8240E050E045
:100AB00062E771E0CE0101960E94D3038091940118
:100AC00090919501029729F449E050E06FE471E0BC
:100AD0000DC0809180019091810148E050E0029723
:100AE00019F469E571E002C062E671E0CE01019699
:100AF0000E94D30300E410E01093AB050093AA0515
:100B00008CE090E09093AD058093AC0589819A814B
:100B10000E94DC081093AB050093AA0588E190E0E1
:100B20009093AD058093AC058BE691E00E94DC08C4
:100B300080917C0190917D010E9490091093AB05FA
:100B40000093AA0584E290E09093AD058093AC05F4
:100B50008FE691E00E94DC0880917A0190917B0100
:100B60000E9490091093AB050093AA0580E390E0E2
:100B70009093AD058093AC0583E791E00E94DC087B
:100B800080917801909179010E94900989819A81E0
:100B90000E94F51426960FB6F894DEBF0FBECDBFA7
:100BA000DF91CF911F910F9108952F923F924F9215
:100BB0005F926F927F928F929F92AF92BF92CF92ED
:100BC000DF92EF92FF920F931F93CF93DF93CDB7F6
:100BD000DEB72E970FB6F894DEBF0FBECDBF2EE363
:100BE00030E045E150E061E070E085E190E00E9496
:100BF0000A092EE330E04BE250E061E070E08BE266
:100C000090E00E940A0925E130E04EE350E065E102
:100C100070E081E090E00E940A092BE230E04EE3B0
:100C200050E06BE270E081E090E00E940A0982E807
:100C300091E098878F831E821D82EF81F885208145
:100C40003181C9010197029768F08D819E810196DB
:100C50009E838D83EF81F8853296F887EF8309971D
:100C600061F7E1C08D819E8163E070E00E942F14E6
:100C7000FC01EE0FFF1FEE5EFE4FC080D180C6016B
:100C800001969A838983660F771FFB01EE5EFE4F04
:100C9000A080B18085010F5F1F4F21303105B1F475
:100CA000450192E1890E911C94017601E2E1EE0E7C
:100CB000F11CA701B80189819A810E940A09940157
:100CC00049815A81B801C7010E940A09EF81F8855C
:100CD00080819181029709F0B8CF2501F9E04F0E8C
:100CE000511C160189E0280E311CB5016F5E7F4F43
:100CF00041E0C1010E94240441E0B801C1010E9409
:100D0000240441E0B201C60141960E94240441E05E
:100D1000B20189819A810E9424048601065F1F4FD7
:100D2000360198E0690E711CE1E0F0E0FA87E9878E
:100D3000812C912C88E090E09E878D87E0EFFFEF7B
:100D4000FC83EB8389EFE82EFF24FA94C5018C190C
:100D50009D099C878B87EFEF8E1A9E0A89859A855D
:100D600002969A878987E80EF91E41E0CD84DE84D9
:100D7000C40CD51CB601C8010E94240441E0B60190
:100D8000C3010E94240441E06201ED85FE85CE1A74
:100D9000DF0AB601C8010E94240441E0B601C30184
:100DA0000E94240441E0CB84DC84C00ED11EB60135
:100DB0008D859E85820D931D9A8389830E942404CC
:100DC00041E0B6016101ED85FE85CE1ADF0AC6015C
:100DD0000E94240441E0AB84BC84A60CB71CB5017E
:100DE00089819A810E94240441E0B501C6010E94D4
:100DF00024048D859E85881699060CF026CFF7FC75
:100E00000CC0ED85FE853197FE87ED878B819C8137
:100E100002969C838B83E80EF91E0F5F1F4F91E0B3
:100E2000691A710898CFE0917E01F0917F013197A6
:100E3000E830F10508F061C0EA5AFF4F0C94431402
:100E40002AE030E04EE350E06AE070E006C020E2C5
:100E500030E04EE350E060E270E080E090E033C0CC
:100E600026E330E04EE350E066E370E0F6CF2EE399
:100E700030E04AE050E060E070E08AE090E023C0BB
:100E80002EE330E040E250E060E070E080E290E08D
:100E90001AC02EE330E046E350E060E070E086E305
:100EA00090E011C02EE330E04DE350E060E070E0F0
:100EB00083E090E008C020E030E040E450E06EE3E2
:100EC00070E085E090E02E960FB6F894DEBF0FBE7E
:100ED000CDBFDF91CF911F910F91FF90EF90DF90E9
:100EE000CF90BF90AF909F908F907F906F905F90CA
:100EF0004F903F902F900C940A092E960FB6F894BD
:100F0000DEBF0FBECDBFDF91CF911F910F91FF903C
:100F1000EF90DF90CF90BF90AF909F908F907F9099
:100F20006F905F904F903F902F90089520919A017D
:100F3000211103C08FEF9FEF08955FB7F89422E06F
:100F40002093E9002091F20030E01216130614F409
:100F500021E030E0422FFC0184E6415038F028982F
:100F6000809399019091F1009193F7CF211531056C
:100F700021F08091F200882319F05FBFC901089524
:100F80008BE68093E800F9CF2FB7F89483E0809345
:100F9000E9009091E800892F807295FF04C090913C
:100FA000F20080E4891B2FBF0895CF93DF931F9237
:100FB000CDB7DEB76983DC01ED91FC910280F3814E
:100FC000E02D41E050E0BE016F5F7F4F09950F902B
:100FD000DF91CF91089583E08093E9008091F20042
:100FE000882319F08AE38093E80008950E94C407DB
:100FF00090E00895CF93DF931F92CDB7DEB7FC0149
:101000008485958597FD05C02FEF3FEF35872487B1
:101010000BC0CE0101960E949607019719F48981B1
:1010200090E002C08FEF9FEF0F90DF91CF91089576
:101030000F931F93CF93DF931F92CDB7DEB78C0131
:10104000FC018485958597FF0EC0CE0101960E9414
:101050009607019719F4898190E002C08FEF9FEF06
:10106000F80195878487F801848595850F90DF9135
:10107000CF911F910F910895FC018485958597FD6F
:101080000BC09FB7F89482E08093E9008091F20052
:101090009FBF90E0019608959FB7F89482E08093F7
:1010A000E9008091F2009FBF90E008958F929F9297
:1010B000AF92BF92CF92DF92EF92FF920F931F9366
:1010C000CF93DF936C017B018A0180910701882314
:1010D00009F45CC080919A01882309F457C080917B
:1010E000980180FF05C08091E00082608093E0005D
:1010F000E801B12C8AEFA82E93E0892E2AE3922EE4
:10110000209711F4BB20D9F10E94C40781110AC0B5
:10111000AA94AA20D9F161E070E080E090E00E94FA
:10112000C00DEECF282F30E0C217D3070CF48C2F60
:101130009FB7F8948092E9002091E80025FF1DC038
:10114000282F30E0C21BD30BF701815020F04191D2
:101150004093F100FACFE20EF31EBB2019F09092FB
:10116000E8000AC08091E80085FD07C09092E80081
:10117000BB24B394209709F0B12C9FBFC1CF5D98D9
:1011800084E68093B2051016110644F081E090E0E9
:10119000F6019383828380E090E001C0C801DF9173
:1011A000CF911F910F91FF90EF90DF90CF90BF9064
:1011B000AF909F908F900895009769F0FC01019087
:1011C0000020E9F73197AF01481B590BBC018BE9AF
:1011D00095E00C94A20380E090E0089580E0EBE9B4
:1011E000F1E081118FEF00248193819381938193AA
:1011F0000394D1F70895EBE9F1E0A0E0B8E00080B6
:101200000EBC8111012C1197A0FDFDCF0192B9F701
:101210000DB408952F923F924F925F926F927F92FA
:101220008F929F92AF92BF92CF92DF92EF92FF92F6
:101230000F931F93CF93DF93EC018B017A01690128
:10124000C61AD70AD7FE03C0D194C194D10847016A
:101250008C1A9D0A97FE03C09194819491088C1476
:101260009D0454F49E2D8F2D7901292F382F9C2F0A
:101270008D2FE801092F182FEC16FD0654F4902F3E
:10128000812F8901292F382F9C2F8D2FE701E92EDF
:10129000F82E17012C1A3D0A2901401A510A57FE4F
:1012A00003C0519441945108310137FE03C08FEFC0
:1012B000681A780A759467940217130714F08FEF71
:1012C00001C081E0A82E880FBB08EC16FD06ACF02B
:1012D00041E08C149D041CF4BE01C80102C0B80199
:1012E000CE010E9424046418750877FE04C00A0D1C
:1012F0001B1D620C731C2196E8CFDF91CF911F91CB
:101300000F91FF90EF90DF90CF90BF90AF909F90A4
:101310008F907F906F905F904F903F902F900895A7
:101320008F929F92AF92BF92CF92DF92EF92FF92F5
:101330000F931F93CF93DF93CDB7DEB7A1970FB66F
:10134000F894DEBF0FBECDBF6C01990FEE08FF0809
:10135000F7FE2BC06DE28BE995E00E943F048C0103
:1013600022273327A9012C193D094E095F0919A22B
:10137000CE0181967C019AE0892E912CA12CB12C72
:10138000CA01B901A50194010E940D14605DF70125
:1013900062937F01211531054105510589F7CF0180
:1013A0000E94DC08800F911F1DC0A701960119A2A1
:1013B0008E010F5D1F4F8AE0C82ED12CE12CF12C3D
:1013C000CA01B901A70196010E940D14605DF801E0
:1013D00062938F01211531054105510589F7CF0130
:1013E0000E94DC08A1960FB6F894DEBF0FBECDBFF9
:1013F000DF91CF911F910F91FF90EF90DF90CF90F1
:10140000BF90AF909F908F9008959C01205F3F4FB9
:101410002039310560F5FC0197FF02C0E0E0F0E003
:1014200041968138910514F080E890E08E1B9B0175
:101430002770332791E001C0990F2A95EAF777FFCB
:1014400002C0695F7F4F23E0759567952A95E1F7A4
:101450007695762F662777956795E60FF71FE55601
:10146000FE4F815020F02081292B2193FACF08953F
:101470002091A505282329F49091A405982381E0C3
:1014800009F480E008958091B70581110DC082E0D4
:101490008093B30584E08093B4051092B605109252
:1014A000B50581E08093B70583EB95E008951F9221
:1014B0000F920FB60F9211248F939F938091E100AA
:1014C0009091E100937F9093E10083FF0FC0109211
:1014D000E90091E09093EB001092EC0092E390937E
:1014E000ED0010929A0198E09093F00082FF20C0E6
:1014F00093E09093E9009091F200992319F09AE318
:101500009093E8009091B205992339F09091B2053B
:1015100091509093B205992389F190919901992363
:1015200039F090919901915090939901992341F14B
:1015300084FF10C08091E2008E7E81608093E20083
:101540008091E1008F7E8093E100809198018E7EF2
:10155000806111C080FF16C08091E2008E7E8061A4
:101560008093E2008091E1008E7E8093E100809183
:1015700098018E7E81608093980104C05D9ACDCFE2
:10158000289AD6CF9F918F910F900FBE0F901F90EA
:10159000189540911B0650911C0620911906309118
:1015A0001A0642175307B4F49091E8009570E1F3DE
:1015B0009091E80092FD19C08093F10080911B0684
:1015C00090911C0601968F739927892B19F48EEF41
:1015D0008093E80080911B0690911C0601969093E1
:1015E0001C0680931B0681E0089580E00895DF9239
:1015F000EF92FF920F931F93CF93DF93D82E8A0120
:101600007B01E40EF51EEB01CE15DF0571F0D7FE70
:1016100003C0FE01849101C088810E94C90A2196FD
:101620008111F2CF8FEF9FEF01C0C801DF91CF9101
:101630001F910F91FF90EF90DF900895615030F06F
:101640002091F100FC0120830196F8CF289884E6D0
:101650008093990108953FB7F89480911506909171
:101660001606A0911706B091180626B5A89B05C0CE
:101670002F3F19F00196A11DB11D3FBFBA2FA92F11
:10168000982F8827820F911DA11DB11DBC01CD018E
:1016900042E0660F771F881F991F4A95D1F708957A
:1016A0000F931F93CF93DF931F92CDB7DEB782E0E6
:1016B000898342E450E069E776E080E80E94F70A17
:1016C0000E94430ADC0112960D911C91139701159B
:1016D000110589F0D801ED91FC910280F381E02D94
:1016E000BE016F5F7F4FC801099597FD04C0F801E7
:1016F00000851185ECCF89810F90DF91CF911F91EB
:101700000F9108951F920F920FB60F921124CF924E
:10171000DF92EF92FF920F931F932F933F934F937C
:101720005F936F937F938F939F93AF93BF93EF9349
:10173000FF93CF93DF93CDB7DEB76C97DEBFCDBFFE
:101740001092E9008091E80083FFFBC168E0CE01C0
:1017500045960E941E0B82EF8093E8008D8987FFDB
:1017600005C09091E80090FFFCCF03C09EEF9093DE
:10177000E800982F907609F0C6C09E894F89588D51
:101780002F89F88C91110CC0803829F480910F06B4
:101790008093F10002C01092F1001092F10045C157
:1017A000913051F4811141C14130510509F03DC1E1
:1017B00080910F068D7F0BC0933061F4811135C18C
:1017C0004130510509F031C180910F06826080934C
:1017D0000F062BC1953049F48091E80080FFFCCFC3
:1017E000822F80688093E30020C1963009F05EC0AC
:1017F0000B8D1C8D22E01092E90010921C061092B5
:101800001B06F21232C010921A06109219060E949C
:10181000500B99E0BE016F5F7F4FDB01E92F1D92F6
:10182000EA95E9F79983FA8291E09E8390EA988796
:101830009AEF998720911B0630911C06275F3F4F36
:101840003C832B838D831092E90010921C0610922A
:101850001B0610931A060093190649E050E080E039
:101860000E94F70A0E94500BE0C010931A060093E2
:1018700019060E94430ADC0112960D911C911397E0
:101880000115110509F4BBC0D801ED91FC9104804C
:10189000F581E02DBE016B5E7F4FC8010995009771
:1018A00009F0C7C0F80100851185EACF973009F427
:1018B00045C1983021F481E08093F100B6C09930A1
:1018C00009F0B3C0837009F039C1EFE3F1E081E0C2
:1018D00031E096E32081211109C08EE78093EA0070
:1018E0001092EA008F8980939A019FC08093E9004B
:1018F0003093EB0021912093EC009093ED008F5FEB
:10190000873041F7EACF8B8D9C8D1092E9001092C1
:101910001C0610921B0690931A0680931906898D57
:10192000811153C08E899D89913A49F4813209F021
:1019300005C147E050E060E071E080E0BBC091325B
:1019400009F0FCC0833269F48F89988DA0E0B0E083
:101950008093080190930901A0930A01B0930B01B1
:1019600064C0803269F48091E80082FFFCCF67E0B8
:1019700080E091E00E941E0B8BEF8093E80055C041
:10198000823209F052C08F8980930701EEEFFFE7A2
:10199000859194918B3F9C4D19F0E0E0F8E002C0F6
:1019A000EEEFFAE08091000190910101A091020117
:1019B000B0910301803B9440A105B10509F09EC0A0
:1019C0008091070180FF79C099C00E94430AFC0101
:1019D000028113810115110509F4B0C0D801ED9100
:1019E000FC910190F081E02DBE016B5E7F4FC8013C
:1019F000099581111AC0F80100851185EBCFF1E03E
:101A0000FF1609F44EC0F3E0FF1298C08F898823B7
:101A100009F44AC0823089F440E860E18DED96E037
:101A20000E948B13882309F489C08EEF8093E8000D
:101A300088C018161906CCF381C0813029F440E81B
:101A40006BE081ED96E0ECCF833009F077C00E9427
:101A5000430ADC011296ED90FC9013978E010F5F04
:101A60001F4F6801E114F10479F0D701ED91FC9169
:101A70000680F781E02DB801C7010995080F111DF7
:101A8000F701E084F184EECFD8011C92F6010190B9
:101A90000020E9F73197BF016C197D0940E0C601CC
:101AA000BFCF6FEB76E002C06BEB76E0FB014491B9
:101AB00050E080E80E94F70AB8CFEE3F2AE0F20734
:101AC00051F0808191818737A7E79A0721F09093A1
:101AD000FF0A8093FE0A87E797E7918380838091CE
:101AE000600080931D069BE088E10FB6F894A895EE
:101AF000809360000FBE9093600097CF80819181AA
:101B00008737974709F091CFA89580916000886149
:101B10008093600080911D0680936000EE3FBAE0E4
:101B2000FB0739F08091FE0A9091FF0A9183808330
:101B30007CCF1092FF0A1092FE0A77CF81E2809349
:101B4000EB006C960FB6F894DEBF0FBECDBFDF91F1
:101B5000CF91FF91EF91BF91AF919F918F917F9125
:101B60006F915F914F913F912F911F910F91FF9036
:101B7000EF90DF90CF900F900FBE0F901F901895B1
:101B80008F929F92AF92BF92CF92DF92EF92FF928D
:101B90006B017C010E942B0B4B015C01C114D10431
:101BA000E104F104F1F00E942B0BDC01CB01881958
:101BB0009909AA09BB09883E9340A105B10570F3B4
:101BC00021E0C21AD108E108F10888EE880E83E00E
:101BD000981EA11CB11CC114D104E104F10419F731
:101BE000DDCFFF90EF90DF90CF90BF90AF909F90B0
:101BF0008F9008951F920F920FB60F9211242F937A
:101C00003F938F939F93AF93BF93809111069091D1
:101C10001206A0911306B09114063091100623E02D
:101C2000230F2D3720F40196A11DB11D05C026E814
:101C3000230F0296A11DB11D20931006809311065B
:101C400090931206A0931306B09314068091150684
:101C500090911606A0911706B09118060196A11D45
:101C6000B11D8093150690931606A0931706B093A6
:101C70001806BF91AF919F918F913F912F910F9037
:101C80000FBE0F901F901895CF93DF9300D000D018
:101C9000CDB7DEB7789484B5826084BD84B58160A9
:101CA00084BD85B5826085BD85B5816085BD809127
:101CB0006E00816080936E0010928100809181009F
:101CC0008260809381008091810081608093810097
:101CD000809180008160809380008091910082607B
:101CE0008093910080919100816080939100809118
:101CF00090008160809390008091C1008460809307
:101D0000C1008091C10082608093C1008091C100B8
:101D100081608093C1008091C30081608093C30083
:101D20008091C00082608093C0008091C200816079
:101D30008093C20080917A00846080937A008091C1
:101D40007A00826080937A0080917A00816080932B
:101D50007A0080917A00806880937A0010929A01CC
:101D600010920F06109298018091D70081608093A5
:101D7000D70080EA8093D80089B5806189BD89B594
:101D8000826089BD09B400FEFDCF61E070E080E0B3
:101D900090E00E94C00D8091D8008F7C806180937C
:101DA000D8008091E000807F8093E0008091E10086
:101DB0008E7E8093E1008DE08093E200559A209A18
:101DC00081EC80937C0085B1806F85B984B1877E7A
:101DD00084B984B1876E84B95E9A5F988AB1806D48
:101DE0008AB9769A6E9881B3806F81BB899880B3E7
:101DF0008D7080BB80E58CBD81E08DBD85E090E07D
:101E00000E9415045F9A85E090E00E9415045E9898
:101E10005C98ECE6F1E084918EBD00000DB407FE05
:101E2000FDCF319601E0E937F007A9F75C9A81E828
:101E3000809364008091650081608093650080E0FC
:101E40000E94FB080E941A0487FF24C05C9885EA60
:101E50008EBD00000DB407FEFDCF5C9A2E982F9822
:101E60002D988091640080628093640081E083BF3C
:101E7000889513BEFCCF2D980E941A04847884386C
:101E800071F00E941A048471843131F188EC90E081
:101E90000E9415040E941A0482FDEDCF3AC00E94F0
:101EA000130488EC90E00E9415042F9882E090E0E3
:101EB0000E94C0138F3F29F06FEF82E090E00E94F4
:101EC000C81384EF91E00E9415042F9A0E941A040F
:101ED00084788438D9F3D5CF0E94130488EC90E03D
:101EE0000E9415042E9882E090E00E94C01388237F
:101EF00029F060E082E090E00E94C81384EF91E056
:101F00000E9415042E9A0E941A0484718431D9F318
:101F1000BDCF0E94130482E090E00E942204882337
:101F200019F03E9A3F9A02C03E983F9881E090E0B7
:101F30000E942204182F1470D12E81FF89C0111124
:101F40002E98E0EF6E2E77247A9408E010E00E943D
:101F50001A0486FF05C02E9A2F9A0E94130478C097
:101F6000DD2031F044E06416710411F42E9A2F98AC
:101F700081E00E94FB08930177FE04C022273327EB
:101F80002619370927703327C30177FC079673E0BA
:101F9000959587957A95E1F777FE05C00197D80169
:101FA000A21BB30B9D01AC015695542F44275795A6
:101FB000479545565E4F60E070E04801821A930AEB
:101FC0008F3FBFEF9B074CF40196685A7F4F4058F4
:101FD0005F4F603B7105A1F71EC07A01E4E9EE0E88
:101FE000F11C5A01A0E0B0E08F3FFFEF9F0709F41A
:101FF000C9C1FD01E60FF71FE454FF4FE491F0E083
:102000002F01022E01C0440C0A94EAF7F501C4889E
:102010004C28448AB7C180E00E94FB088FE090E022
:102020000E941504FFEF6F1A7F0A49E164167104DC
:1020300009F08DCFDD2011F02F9A2D9880E991E0E5
:102040000E9415040E9413048BE995E00E94151369
:1020500082E390E00E9415040E941A048111F8CFD7
:102060000E94EE081092AD051092AC051092AB05DF
:102070001092AA05109295011092940110927D0180
:1020800010927C0110927B0110927A0110927901DA
:102090001092780119E0412E512CCC24C394D12CFC
:1020A00082E0282E312C0E94EE081092AD0510928D
:1020B000AC051092AB051092AA058091A4058093FF
:1020C000A5050E941A048093A40580919401909123
:1020D00095010097D9F485E290E09093AB05809349
:1020E000AA05ABE1B0E0B093AD05A093AC0585E4E3
:1020F00091E00E94DC0888E00E94380A811163C1E7
:1021000084E00E94380A81115EC131C1813091059D
:1021100009F007C11092AB051092AA051092AD0507
:102120001092AC050E94D5050E94390500919601D8
:10213000109197010930110509F460C0C80163E0EE
:1021400070E00E942F14FC01EE0FFF1FEE5EFE4FA9
:10215000608071804301BFEF8B1A9B0A660F771F67
:10216000FB01EE5EFE4FE080F180F7013196FC83CB
:10217000EB83E034F10520F4BF01C4010E94050A9D
:10218000B7016F5E7F4F6034710518F4C4010E947F
:10219000050AA7014E5E5F4F5A834983EB80FC809E
:1021A000F7FE02C01C821B82AB80BC80E980FA80F3
:1021B000A701413451051CF0E0E4EE2EF12CAE14E1
:1021C000BF044CF441E0B501C4010E9424045FEF58
:1021D000A51AB50AEBCF81E1680E711CAB81BC81F9
:1021E000AE15BF055CF441E0BD01C3010E942404AB
:1021F000EB81FC813196FC83EB83F0CF80E20E947F
:10220000380A811106C080E10E94380A811115C088
:1022100038C0C8010896B2010E942F148C01FC013D
:10222000EE0FFF1FEE57FE4F80819181892B89F7BA
:102230001093970100939601E6CF2091960130917B
:102240009701C9010396B2010E942F14FC01EE0F01
:10225000FF1FEE57FE4F40815181452B71F0C901A0
:102260000696B2010E942F14FC01EE0FFF1FEE57DD
:10227000FE4F20813181232B21F49093970180938D
:10228000960180E80E94380A882321F12091960166
:1022900030919701C9010696B2010E942F14FC01EA
:1022A000EE0FFF1FEE57FE4F40815181452B71F01D
:1022B000C9010396B2010E942F14FC01EE0FFF1F0B
:1022C000EE57FE4F20813181232B21F4909397010B
:1022D0008093960180E40E94380A811106C088E04C
:1022E0000E94380A811180C016C080919601909199
:1022F00097010196B2010E942F14FC01EE0FFF1FFF
:10230000EE57FE4F20813181232B99F7909397014F
:1023100080939601E4CF84E00E94380A811164C062
:1023200026C0029721F51092AB051092AA051092D3
:10233000AD051092AC050E94D5050E94390588E0D4
:102340000E94380A882319F0E2E8F1E006C084E030
:102350000E94380A8111F8CF0AC01192119281E0CF
:10236000E439F807D1F7109295011092940180E0BA
:102370000E94FB08A0E0B0E0AB2B09F494CE0E94D1
:10238000000091CE2115310591F0FD01E60FF71FF8
:10239000E454FF4FE491F0E02F01082C02C0559463
:1023A00047940A94E2F7F701C0804C2840821196C6
:1023B000FFEFEF1AFF0AEFEFAE1ABE0AA835B1051C
:1023C00009F012CE01CED0929501C0929401D09224
:1023D0008101C09280011092970110929601109293
:1023E0007F0110927E01C3CF6091800170918101C5
:1023F000E0919601F0919701EE0FFF1FEE57FE4F0F
:1024000071836083E2E8F1E0DF0180E090E02D91EC
:102410003D91232BB1F49093970180939601A09165
:102420008201B0918301E0908401F0908501FA82ED
:10243000E9822091860130918701AE15BF0579F4BC
:1024400005C001968930910511F7E5CFA217B307B2
:1024500031F4109721F0D0927F01C0927E0100915B
:1024600088011091890140918E0150918F01A01730
:10247000B10749F4A417B50731F4109721F0309251
:102480007F0120927E0180918A0190918B01A81793
:10249000B90779F4A0919201B09193018A179B0733
:1024A00041F4009731F0A3E0B0E0B0937F01A09336
:1024B0007E01A0919001B0919101E980FA80E81627
:1024C000F90669F48A179B0751F4009741F0689464
:1024D000EE24E2F8F12CF0927F01E0927E01E09090
:1024E0008C01F0908D01FA82E9822E153F0599F456
:1024F000E0909201F09093012E153F0561F42115B3
:10250000310549F00F2EF5E0EF2EF12CF02DF09271
:102510007F01E0927E010817190771F409811A8181
:102520008017910749F4009739F016E0E12EF12C5D
:10253000F0927F01E0927E014A175B0729F5A09196
:102540009201B09193014A175B07F1F441155105CF
:10255000D9F007E010E010937F0100937E0184170B
:10256000950709F45DC03092950120929401613085
:10257000710501F580917C0190917D010196909308
:102580007D0180937C013EC08417950759F4821722
:10259000930741F4892B31F048E050E050937F01DC
:1025A00040937E0180917E0190917F01181619065B
:1025B000D4F20AC080917A0190917B0101969093A8
:1025C0007B0180937A0123C081919191892BB9F08D
:1025D00051E0E439F507C1F730929501209294015A
:1025E000809178019091790101969093790180937F
:1025F0007801E9E0F0E0F0937F01E0937E01613043
:10260000710529F43092810120928001B0CE6230B0
:10261000710509F0ACCED0928101C0928001A7CEA5
:102620008217930709F0BECFB7CF0F931F93CF93B5
:10263000DF938C0181E090E00E94220480FF32C091
:102640008AE090E00E9422049FEF980F9E3F50F591
:1026500022E330E0D80150963C932E931F9728E355
:1026600030E052963C932E935197CBE0D0E0D801C6
:10267000ED91FC910190F081E02D682FC801099542
:10268000CE010E9422042196C131D10581F780E05C
:102690000E94FB0888EE93E0DF91CF911F910F918C
:1026A0000C941504DF91CF911F910F910895049719
:1026B0000C941513EFEBF5E01382128288EE93E091
:1026C000A0E0B0E084839583A683B7838CE191E09A
:1026D000918380838FEF9FEF95878487EBE9F5E007
:1026E000138212821186128680E1838710861782F8
:1026F00015868EE291E0918380838CE391E095834F
:102700008483108A1786128A118A81E0838B148A47
:10271000858B168A0895DF92EF92FF920F931F9395
:10272000CF93DF93D82EF92EE42E062F10E0C801A8
:102730000196880F0E94C90A83E00E94C90ACD2D24
:10274000DF2D0C0F1D1FC017D10789F0E7FE03C056
:10275000FE01849101C088810E94C90AF82E80E0A0
:102760000E94C90A8F2121968111EDCF01C081E01D
:10277000DF91CF911F910F91FF90EF90DF9008951F
:10278000F999FECF92BD81BDF89A992780B5089539
:10279000262FF999FECF1FBA92BD81BD20BD0FB67D
:1027A000F894FA9AF99A0FBE019608952F923F92E3
:1027B0004F925F926F927F928F929F92AF92BF9251
:1027C000CF92DF92EF92FF920F931F93CF93DF93FD
:1027D000CDB7DEB7CA1BDB0B0FB6F894DEBF0FBE5A
:1027E000CDBF09942A88398848885F846E847D84A7
:1027F0008C849B84AA84B984C884DF80EE80FD80A9
:102800000C811B81AA81B981CE0FD11D0FB6F8941E
:10281000DEBF0FBECDBFED010895A1E21A2EAA1BA7
:10282000BB1BFD010DC0AA1FBB1FEE1FFF1FA21780
:10283000B307E407F50720F0A21BB30BE40BF50B7D
:10284000661F771F881F991F1A9469F76095709506
:10285000809590959B01AC01BD01CF01089597FB38
:10286000072E16F4009407D077FD09D00E94491472
:1028700007FC05D03EF4909581959F4F0895709583
:1028800061957F4F0895EE0FFF1F0590F491E02DA5
:102890000994AA1BBB1B51E107C0AA1FBB1FA617A7
:1028A000B70710F0A61BB70B881F991F5A95A9F7F9
:1028B00080959095BC01CD0108950F931F93CF9300
:1028C000DF938230910510F482E090E0E0912006E1
:1028D000F091210620E030E0A0E0B0E0309719F15F
:1028E000408151810281138148175907C8F084172C
:1028F000950769F4109731F012960C93129713967E
:102900001C9327C0009320061093210622C0211596
:10291000310519F04217530718F49A01BD01EF0170
:10292000DF01F801DBCF21153105F9F0281B390B48
:102930002430310580F48A819B816115710521F075
:10294000FB019383828304C0909321068093200629
:10295000FE01329644C0FE01E20FF31F8193919372
:1029600022503109398328833AC020911E063091C4
:102970001F06232B41F420910E0130910F0130935B
:102980001F0620931E0620910C0130910D01211588
:10299000310541F42DB73EB740911001509111011E
:1029A000241B350BE0911E06F0911F06E217F3077A
:1029B000A0F42E1B3F0B2817390778F0AC014E5FAF
:1029C0005F4F2417350748F04E0F5F1F50931F06C7
:1029D00040931E068193919302C0E0E0F0E0CF01A6
:1029E000DF91CF911F910F910895CF93DF930097BF
:1029F00009F481C0FC01329713821282A091200653
:102A0000B0912106109781F420813181820F931FAC
:102A100020911E0630911F062817390751F5F093B3
:102A20001F06E0931E0667C0ED0120E030E0CE17E0
:102A3000DF0740F44A815B819E0141155105F1F0A9
:102A4000EA01F5CFD383C28340815181840F951F62
:102A5000C817D90759F488819981840F951F029668
:102A6000918380838A819B819383828321153105A1
:102A700029F4F0932106E09320063DC0E901FB8391
:102A8000EA8349915991C40FD51FEC17FD0761F4F2
:102A900080819181840F951F0296E9019983888333
:102AA000828193819B838A83E0E0F0E012968D918E
:102AB0009C911397009719F0FD01DC01F7CF8D91E0
:102AC0009C9111979D012E5F3F4F820F931F209184
:102AD0001E0630911F062817390769F4309729F42C
:102AE000109221061092200602C013821282B09327
:102AF0001F06A0931E06DF91CF910895A0E0B0E0DD
:102B0000E4E8F5E10C94DA13EC01009721F4CB0131
:102B10000E945D14B4C0FC01E60FF71F9C01225017
:102B20003109E217F30708F4A8C0D9010D911C91EF
:102B3000119706171707B0F00530110508F49BC070
:102B4000C80104978617970708F495C00250110929
:102B5000061B170B019311936D937C93CF010E9479
:102B6000F51489C05B01A01AB10A4C01800E911EB8
:102B7000A0912006B0912106612C712CE12CF12C42
:102B8000109709F446C08D919C911197A815B9052D
:102B9000B1F56C0142E0C40ED11CCA14DB0478F11B
:102BA0004C018A189B08640142E0C40ED11C1296A5
:102BB000BC9012971396AC91B5E0CB16D10440F0BF
:102BC000B282A38391828082D9016D937C9309C0E4
:102BD0000E5F1F4F800F911FF90191838083EB2DB2
:102BE000FA2FE114F10431F0D7011396FC93EE9320
:102BF000129741C0F0932106E09320063CC068166E
:102C0000790608F43C017D0112960D90BC91A02D2F
:102C1000B7CF80911E0690911F0688169906E1F4A1
:102C200066167706C8F480910C0190910D0100970B
:102C300041F48DB79EB74091100150911101841B52
:102C4000950BE817F907C8F4F0931F06E0931E06EA
:102C5000F901718360830FC0CB010E945D147C0178
:102C6000009759F0A801BE010E944916CE010E94AA
:102C7000F514C70104C0CE0102C080E090E0CDB7DA
:102C8000DEB7EEE00C94F61381E090E0F8940C943B
:102C90005916FB01DC0102C001900D9241505040D9
:102CA000D8F70895FB01DC0101900D920020E1F7B7
:062CB0000895F894FFCF27
:102CB60000E1000000000000FFFFFFFF0000220609
:102CC6008000010017002D0000000000D5075608FF
:102CD600F607EB073C08FA071808000000003F0457
:102CE600A203CE03CD031513FCFF0000571300C14A
:102CF6008081000000546963546163546F65004726
:102D0600616D65204F766572004F2773205475728A
:102D16006E00582773205475726E00583A20004F83
:082D26003A2000543A2000009D
:00000001FF
