:100000000C9470030C9498030C9498030C9498032C
:100010000C9498030C9498030C9498030C949803F4
:100020000C9498030C9498030C9470070C94E207BA
:100030000C9498030C9498030C9498030C949803D4
:100040000C9498030C9498030C9498030C949803C4
:100050000C9498030C9498030C9498030C94160534
:100060000C9498030C9498030C9498030C949803A4
:100070000C9498030C9498030C9498030C94980394
:100080000C9498030C9498030C9498030C94980384
:100090000C9498030C9498030C9498030C94980374
:1000A0000C9498030C9498030C949803000000009F
:1000B000003E5B4F5B3E3E6B4F6B3E1C3E7C3E1CEE
:1000C000183C7E3C181C577D571C1C5E7F5E1C0034
:1000D000183C1800FFE7C3E7FF0018241800FFE7EB
:1000E000DBE7FF30483A060E2629792926407F05AE
:1000F0000507407F05253F5A3CE73C5A7F3E1C1CC4
:1001000008081C1C3E7F14227F22145F5F005F5F83
:1001100006097F017F006689956A6060606060946F
:10012000A2FFA29408047E040810207E2010080874
:100130002A1C08081C2A08081E101010100C1E0C7F
:100140001E0C30383E3830060E3E0E060000000011
:100150000000005F00000007000700147F147F14F8
:10016000242A7F2A1223130864623649562050003D
:1001700008070300001C2241000041221C002A1C29
:100180007F1C2A08083E0808008070300008080814
:100190000808000060600020100804023E51494534
:1001A0003E00427F400072494949462141494D3352
:1001B0001814127F1027454545393C4A49493141B9
:1001C000211109073649494936464949291E000087
:1001D00014000000403400000008142241141414DC
:1001E0001414004122140802015909063E415D59C8
:1001F0004E7C1211127C7F494949363E41414122D1
:100200007F4141413E7F494949417F090909013EFA
:10021000414151737F0808087F00417F4100204021
:10022000413F017F081422417F404040407F021C33
:10023000027F7F0408107F3E4141413E7F0909094A
:10024000063E4151215E7F09192946264949493216
:1002500003017F01033F4040403F1F2040201F3FDC
:100260004038403F63140814630304780403615961
:10027000494D43007F4141410204081020004141A3
:10028000417F04020102044040404040000307084F
:100290000020545478407F2844443838444444284B
:1002A000384444287F385454541800087E090218F2
:1002B000A4A49C787F0804047800447D400020407A
:1002C000403D007F1028440000417F40007C0478BE
:1002D00004787C080404783844444438FC18242406
:1002E0001818242418FC7C08040408485454542486
:1002F00004043F44243C4040207C1C2040201C3C03
:100300004030403C44281028444C9090907C4464F9
:10031000544C44000836410000007700000041368C
:10032000080002010204023C2623263C1EA1A16112
:10033000123A4040207A3854545559215555794144
:100340002154547841215554784020545579400C1B
:100350001E527212395555555939545454593955FC
:100360005454580000457C410002457D420001453F
:100370007C40F0292429F0F0282528F07C545545AC
:10038000002054547C547C0A097F4932494949323F
:100390003248484832324A4848303A4141217A3A54
:1003A00042402078009DA0A07D39444444393D401E
:1003B00040403D3C24FF2424487E4943662B2FFCCB
:1003C0002F2BFF0929F620C0887E09032054547979
:1003D000410000447D413048484A32384040227A4A
:1003E000007A0A0A727D0D19317D2629292F2826C7
:1003F0002929292630484D402038080808080808CF
:100400000808382F10C8ACBA2F102834FA00007B27
:10041000000008142A142222142A1408950022002D
:1004200095AA005500AAAA55AA55AA000000FF00E7
:10043000101010FF00141414FF001010FF00FF1024
:1004400010F010F0141414FC001414F700FF000056
:10045000FF00FF1414F404FC141417101F10101FD5
:10046000101F1414141F00101010F0000000001FC3
:10047000101010101F10101010F010000000FF10CE
:100480001010101010101010FF10000000FF1400CA
:1004900000FF00FF00001F10170000FC04F41414FC
:1004A0001710171414F404F40000FF00F7141414C8
:1004B00014141414F700F7141414171410101F1048
:1004C0001F141414F4141010F010F000001F101F6B
:1004D0000000001F14000000FC140000F010F010D9
:1004E00010FF10FF141414FF141010101F00000050
:1004F00000F010FFFFFFFFFFF0F0F0F0F0FFFFFF54
:100500000000000000FFFF0F0F0F0F0F38444438AA
:10051000447C2A2A3E147E02020606027E027E02E5
:1005200063554941633844443C04407E201E200604
:10053000027E020299A5E7A5991C2A492A1C4C7241
:1005400001724C304A4D4D303048784830BC625AC8
:10055000463D3E494949007E0101017E2A2A2A2A58
:100560002A44445F444440514A444040444A514034
:100570000000FF0103E080FF000008086B6B0836F5
:1005800012362436060F090F060000181800000066
:100590001010003040FF0101001F01011E00191D55
:1005A0001712003C3C3C3C0000000000F0F89C8E20
:1005B0008783878E9CF8F00000FEFF03030303038C
:1005C000070EFCF80000FEFF0303030303070EFC05
:1005D000F80000FFFF00000000000000FFFF000027
:1005E000FEFF8383838383C7EE7C380000F8FC0E14
:1005F00007030303070EFCF800003F7FE0C0808084
:10060000C0E07F3FFFFF01010101010101FFFF0089
:1006100000FFFF0C0C0C0C1C3E77E3C100007FFFB9
:10062000C0C0C0C0C0E0703F1F00001F3F70E0C0EE
:10063000C0C0E0703F1F00007FFFC1C1C1C1C1E366
:10064000773E1C00001F3F70E0C0C0C0E0703F1F3D
:10065000000000000001FFFF01000000D5F08D1434
:10066000A1C881CFD9F1AF2000080B00020202011E
:100670000009040000010202000005240010010529
:100680002401010104240206052406000107058156
:100690000310004009040100020A000000070502DF
:1006A0000240000007058302400000040309041211
:1006B000010002EF020140412336800001010203E4
:1006C0000141726475696E6F204C4C430041726445
:1006D00075696E6F204C656F6E6172646F00900E6D
:1006E00011241FBECFEFDAE0DEBFCDBF11E0A0E0E6
:1006F000B1E0EEE9F0E202C005900D92A038B1073A
:10070000D9F726E0A0E8B1E001C01D92A031B20700
:10071000E1F713E0C0E7D3E004C02197FE010E9497
:10072000210FCF36D107C9F70E94250B0C944D102D
:100730000C940000CF92DF92EF92FF920F931F93E1
:10074000CF93DF936C017A018B01C0E0D0E0CE152E
:10075000DF0581F0D8016D918D01D601ED91FC91FD
:100760000190F081E02DC6010995892B11F02196A9
:10077000EECF7E01C701DF91CF911F910F91FF90C6
:10078000EF90DF90CF9008952D9A08958FB18095C6
:10079000807F669B88601C9B8460089580389105EB
:1007A000B8F460347105A0F490E121E061FD24E02B
:1007B00060FD220F62FD2295687F969FD001112473
:1007C000A80FAE56BE4F8C91822B40FF82278C9390
:1007D00008952F923F924F925F926F927F928F92E5
:1007E0009F92AF92BF92CF92DF92EF92FF920F93C0
:1007F0001F93CF93DF93CDB7DEB727970FB6F8944B
:10080000DEBF0FBECDBF9F838E836A30A1F4DC01B3
:1008100055962C91559751968D919C915297B8E091
:100820002B9F800D911D1124EE81FF81928B818B76
:10083000108A1786ADC06D3009F4AAC0AE81BF81A1
:100840001F960D911C91509700381105BCF0EE8158
:10085000FF812589422F50E087859089F6E02F9F00
:10086000800D911D1124AE81BF8150969C938E9373
:100870001F9756962C91211175C08AC0EE81FF8179
:1008800081889288F0E48F1691040CF7AE81BF81C5
:1008900055963C90C801B5E03B9E800D911D1124FA
:1008A00018161906A4F6432C512CC401E8E03E9E0C
:1008B000800D911D1124181619064CF6AE81BF81CA
:1008C0005496BC91BC83EE81FF81F389FD8325E0C2
:1008D000629FB0011124CB0184559F4F3C011982C6
:1008E000F3012490F981F53009F4212C640128E00A
:1008F0002B8320FE03C03D813A8302C08C818A8312
:100900009A81911104C0AC81BD81AB17B9F0780117
:100910008E2D801B831590F456018A2D8C1983151A
:1009200048F44A81B501C7010E94CE03EFEFAE1A29
:10093000BE0AF3CFFFEFEF1AFF0AEACF26942B810E
:1009400021502B83C40CD51C2111D3CF39813F5F9B
:100950003983040D151DC30101963C01363009F0A1
:10096000BFCF75CF6AEF64039001659F300D1124EE
:1009700020583F4F281739075CF4AE81BF81ED91B5
:10098000FC9111970190F081E02D6AE0CD0109956D
:1009900081E090E027960FB6F894DEBF0FBECDBF82
:1009A000DF91CF911F910F91FF90EF90DF90CF904B
:1009B000BF90AF909F908F907F906F905F904F907F
:1009C0003F902F9008950895089580E090E0089555
:1009D0000C94C10EBC0180E090E00C94200A0E94AF
:1009E00048103FB7F89480918B0190918C01A091B1
:1009F0008D01B0918E0126B5A89B05C02F3F19F03F
:100A00000196A11DB11D3FBFBA2FA92F982F88278E
:100A1000820F911DA11DB11DBC01CD0142E0660FE9
:100A2000771F881F991F4A95D1F708951F920F923B
:100A30000FB60F9211242F933F938F939F93AF93F1
:100A4000BF938091870190918801A0918901B09115
:100A50008A013091860123E0230F2D3720F401967F
:100A6000A11DB11D05C026E8230F0296A11DB11DD1
:100A7000209386018093870190938801A093890138
:100A8000B0938A0180918B0190918C01A0918D018E
:100A9000B0918E010196A11DB11D80938B019093A1
:100AA0008C01A0938D01B0938E01BF91AF919F9166
:100AB0008F913F912F910F900FBE0F901F9018951F
:100AC00020919101211103C08FEF9FEF08955FB72F
:100AD000F89422E02093E9002091F20030E0121611
:100AE000130614F421E030E0422FFC0184E641506B
:100AF00038F028988093BB059091F1009193F7CF3F
:100B00002115310521F08091F200882319F05FBF93
:100B1000C90108958BE68093E800F9CF2FB7F894C8
:100B200083E08093E9009091E800892F807295FF1F
:100B300004C09091F20080E4891B2FBF089580913A
:100B4000B30581110DC082E08093AF0584E08093EE
:100B5000B0051092B2051092B10581E08093B30503
:100B60008FEA95E00895CF93DF931F92CDB7DEB75C
:100B70006983DC01ED91FC910280F381E02D41E07D
:100B800050E0BE016F5F7F4F09950F90DF91CF91CD
:100B9000089583E08093E9008091F200882319F0A2
:100BA0008AE38093E80008950E948E0590E00895FE
:100BB000CF93DF931F92CDB7DEB7FC018485958577
:100BC00097FD05C02FEF3FEF358724870BC0CE017F
:100BD00001960E946005019719F4898190E002C096
:100BE0008FEF9FEF0F90DF91CF9108950F931F9399
:100BF000CF93DF931F92CDB7DEB78C01FC018485C4
:100C0000958597FF0EC0CE0101960E946005019761
:100C100019F4898190E002C08FEF9FEFF80195876A
:100C20008487F801848595850F90DF91CF911F917E
:100C30000F910895FC018485958597FD0BC09FB7A2
:100C4000F89482E08093E9008091F2009FBF90E0E9
:100C5000019608959FB7F89482E08093E90080910F
:100C6000F2009FBF90E008954091AB055091AC0514
:100C70002091A9053091AA0542175307B4F4909129
:100C8000E8009570E1F39091E80092FD19C080931F
:100C9000F1008091AB059091AC0501968F73992777
:100CA000892B19F48EEF8093E8008091AB05909129
:100CB000AC0501969093AC058093AB0581E0089557
:100CC00080E00895DF92EF92FF920F931F93CF93EE
:100CD000DF93D82E8A017B01E40EF51EEB01CE15C1
:100CE000DF0571F0D7FE03C0FE01849101C0888149
:100CF0000E94340621968111F2CF8FEF9FEF01C041
:100D0000C801DF91CF911F910F91FF90EF90DF907D
:100D100008950F931F93CF93DF931F92CDB7DEB744
:100D200082E0898342E450E069E676E080E80E9450
:100D300062060E949F05DC0112960D911C9113978B
:100D40000115110589F0D801ED91FC910280F38124
:100D5000E02DBE016F5F7F4FC801099597FD04C06C
:100D6000F80100851185ECCF89810F90DF91CF913B
:100D70001F910F910895615030F02091F100FC0116
:100D800020830196F8CF289884E68093BB050895C8
:100D90008F929F92AF92BF920F931F93CF93DF9347
:100DA000CDB7DEB7A1970FB6F894DEBF0FBECDBFAB
:100DB00019A2423008F44AE08E010F5D1F4F842EC5
:100DC000912CA12CB12CA50194010E94D70EE62FE5
:100DD000B901CA0101501109EA3014F4E05D01C003
:100DE000E95CD801EC93232B242B252B61F701150B
:100DF000110571F0F80101900020E9F73197AF017A
:100E0000401B510BB80182E995E00E949A0302C091
:100E100080E090E0A1960FB6F894DEBF0FBECDBF84
:100E2000DF91CF911F910F91BF90AF909F908F90C6
:100E3000089580E0E2E9F1E081118FEF00248193D1
:100E40008193819381930394D1F70895E2E9F1E0CE
:100E5000A0E0B8E000800EBC8111012C1197A0FD2C
:100E6000FDCF0192B9F70DB40895CF92DF92EF92C2
:100E7000FF92CF93DF936C01990FEE08FF08F7FE06
:100E800019C06DE282E995E00E94E903EC01662752
:100E90007727CB016C197D098E099F094AE00E94D2
:100EA000C8068C0F9D1FDF91CF91FF90EF90DF90D0
:100EB000CF9008954AE0C701B601DF91CF91FF902E
:100EC000EF90DF90CF900C94C80620919C052823CA
:100ED00029F490919B05982381E009F480E008951E
:100EE0001F920F920FB60F9211248F939F938091B0
:100EF000E1009091E100937F9093E10083FF0FC0A8
:100F00001092E90091E09093EB001092EC0092E3D4
:100F10009093ED001092910198E09093F00082FF81
:100F200020C093E09093E9009091F200992319F08A
:100F30009AE39093E8009091AE05992339F090914F
:100F4000AE0591509093AE05992389F19091BB0520
:100F5000992339F09091BB0591509093BB0599234B
:100F600041F184FF10C08091E2008E7E8160809309
:100F7000E2008091E1008F7E8093E10080919001FA
:100F80008E7E806111C080FF16C08091E2008E7E4F
:100F900080618093E2008091E1008E7E8093E10089
:100FA000809190018E7E81608093900104C05D9A53
:100FB000CDCF289AD6CF9F918F910F900FBE0F90D3
:100FC0001F9018951F920F920FB60F921124CF9277
:100FD000DF92EF92FF920F931F932F933F934F93C4
:100FE0005F936F937F938F939F93AF93BF93EF9391
:100FF000FF93CF93DF93CDB7DEB76C97DEBFCDBF46
:101000001092E9008091E80083FFFBC168E0CE0107
:1010100045960E94BB0682EF8093E8008D8987FF8A
:1010200005C09091E80090FFFCCF03C09EEF909325
:10103000E800982F907609F0C6C09E894F89588D98
:101040002F89F88C91110CC0803829F480918F0180
:101050008093F10002C01092F1001092F10045C19E
:10106000913051F4811141C14130510509F03DC128
:1010700080918F018D7F0BC0933061F4811135C158
:101080004130510509F031C180918F018260809318
:101090008F012BC1953049F48091E80080FFFCCF8F
:1010A000822F80688093E30020C1963009F05EC0F3
:1010B0000B8D1C8D22E01092E9001092AC0510926D
:1010C000AB05F21232C01092AA051092A9050E9437
:1010D000890699E0BE016F5F7F4FDB01E92F1D920A
:1010E000EA95E9F79983FA8291E09E8390EA9887DE
:1010F0009AEF99872091AB053091AC05275F3F4F60
:101100003C832B838D831092E9001092AC051092E2
:10111000AB051093AA050093A90549E050E080E0D3
:101120000E9462060E948906E0C01093AA050093FF
:10113000A9050E949F05DC0112960D911C91139741
:101140000115110509F4BBC0D801ED91FC91048093
:10115000F581E02DBE016B5E7F4FC80109950097B8
:1011600009F0C7C0F80100851185EACF973009F46E
:1011700045C1983021F481E08093F100B6C09930E8
:1011800009F0B3C0837009F039C1E3E4F1E081E014
:1011900031E096E32081211109C08EE78093EA00B7
:1011A0001092EA008F89809391019FC08093E9009B
:1011B0003093EB0021912093EC009093ED008F5F32
:1011C000873041F7EACF8B8D9C8D1092E900109209
:1011D000AC051092AB059093AA058093A905898D63
:1011E000811153C08E899D89913A49F4813209F069
:1011F00005C147E050E064E071E080E0BBC091329F
:1012000009F0FCC0833269F48F89988DA0E0B0E0CA
:101210008093000190930101A0930201B093030118
:1012200064C0803269F48091E80082FFFCCF67E0FF
:1012300084E091E00E94BB068BEF8093E80055C0EC
:10124000823209F052C08F8980930B01EEEFFFE7E5
:10125000859194918B3F9C4D19F0E0E0F8E002C03D
:10126000EEEFFAE08091040190910501A091060152
:10127000B0910701803B9440A105B10509F09EC0E3
:1012800080910B0180FF79C099C00E949F05FC01ED
:10129000028113810115110509F4B0C0D801ED9147
:1012A000FC910190F081E02DBE016B5E7F4FC80183
:1012B000099581111AC0F80100851185EBCFF1E085
:1012C000FF1609F44EC0F3E0FF1298C08F898823FF
:1012D00009F44AC0823089F440E860E18DEC96E080
:1012E0000E945B0E882309F489C08EEF8093E8008A
:1012F00088C018161906CCF381C0813029F440E863
:101300006BE081EC96E0ECCF833009F077C00E946F
:101310009F05DC011296ED90FC9013978E010F5FF4
:101320001F4F6801E114F10479F0D701ED91FC91B0
:101330000680F781E02DB801C7010995080F111D3E
:10134000F701E084F184EECFD8011C92F601019000
:101350000020E9F73197BF016C197D0940E0C60113
:10136000BFCF6FEA76E002C06BEA76E0FB01449102
:1013700050E080E80E946206B8CFEE3F2AE0F20714
:1013800051F0808191818737A7E79A0721F09093E8
:10139000FF0A8093FE0A87E797E791838083809115
:1013A00060008093AD059BE088E10FB6F894A895A6
:1013B000809360000FBE9093600097CF80819181F1
:1013C0008737974709F091CFA89580916000886191
:1013D000809360008091AD0580936000EE3FBAE09D
:1013E000FB0739F08091FE0A9091FF0A9183808378
:1013F0007CCF1092FF0A1092FE0A77CF81E2809391
:10140000EB006C960FB6F894DEBF0FBECDBFDF9138
:10141000CF91FF91EF91BF91AF919F918F917F916C
:101420006F915F914F913F912F911F910F91FF907D
:10143000EF90DF90CF900F900FBE0F901F901895F8
:101440008F929F92AF92BF92CF92DF92EF92FF92D4
:101450006B017C010E94F1044B015C01C114D104B9
:10146000E104F104F1F00E94F104DC01CB018819E0
:101470009909AA09BB09883E9340A105B10570F3FB
:1014800021E0C21AD108E108F10888EE880E83E055
:10149000981EA11CB11CC114D104E104F10419F778
:1014A000DDCFFF90EF90DF90CF90BF90AF909F90F7
:1014B0008F9008958F929F92AF92BF92CF92DF92BA
:1014C000EF92FF920F931F93CF93DF936C017B01F9
:1014D0008A0180910B01882309F45CC080919101FD
:1014E000882309F457C08091900180FF05C0809146
:1014F000E00082608093E000E801B12C8AEFA82E22
:1015000093E0892E2AE3922E209711F4BB20D9F183
:101510000E948E0581110AC0AA94AA20D9F161E027
:1015200070E080E090E00E94200AEECF282F30E0AB
:10153000C217D3070CF48C2F9FB7F8948092E90060
:101540002091E80025FF1DC0282F30E0C21BD30BDF
:10155000F701815020F041914093F100FACFE20E63
:10156000F31EBB2019F09092E8000AC08091E800B9
:1015700085FD07C09092E800BB24B394209709F042
:10158000B12C9FBFC1CF5D9884E68093AE05101645
:10159000110644F081E090E0F6019383828380E0BD
:1015A00090E001C0C801DF91CF911F910F91FF9092
:1015B000EF90DF90CF90BF90AF909F908F90089565
:1015C0000F931F93CF93DF938C0181E090E00E94F3
:1015D000E80480FF32C08AE090E00E94E8049FEFB8
:1015E000980F9E3F50F522E330E0D80150963C938F
:1015F0002E931F9728E330E052963C932E935197F9
:10160000CBE0D0E0D801ED91FC910190F081E02D8C
:10161000682FC8010995CE010E94E8042196C131C6
:10162000D10581F780E00E94260788EE93E0DF91E4
:10163000CF911F910F910C94EA04DF91CF911F91EC
:101640000F91089504970C94E00ACF93DF93CDB7E0
:10165000DEB760970FB6F894DEBF0FBECDBF7894AB
:1016600084B5826084BD84B5816084BD85B58260A7
:1016700085BD85B5816085BD80916E008160809358
:101680006E001092810080918100826080938100C1
:1016900080918100816080938100809180008160D1
:1016A000809380008091910082608093910080916E
:1016B000910081608093910080919000816080937F
:1016C00090008091C10084608093C1008091C1002E
:1016D00082608093C1008091C10081608093C100CD
:1016E0008091C30081608093C3008091C0008260BC
:1016F0008093C0008091C20081608093C20080917D
:101700007A00846080937A0080917A00826080936E
:101710007A0080917A00816080937A0080917A00CB
:10172000806880937A001092910110928F0110923C
:1017300090018091D70081608093D70080EA8093E8
:10174000D80089B5806189BD89B5826089BD09B439
:1017500000FEFDCF61E070E080E090E00E94200A92
:101760008091D8008F7C80618093D8008091E000C8
:10177000807F8093E0008091E1008E7E8093E10085
:101780008DE08093E200559A209A81EC80937C0052
:1017900085B1806F85B984B1877E84B984B1876E45
:1017A00084B95E9A5F988AB1806D8AB9769A6E988C
:1017B00081B3806F81BB899880B38D7080BB80E5D9
:1017C0008CBD81E08DBD85E090E00E94EA045F9AC7
:1017D00085E090E00E94EA045E985C98ECE5F6E013
:1017E00089E696E024912EBD00000DB407FEFDCFE2
:1017F00031968E179F07B1F75C9A81E88093640059
:101800008091650081608093650080E00E942607DA
:101810000E94C60387FF24C05C9885EA8EBD000045
:101820000DB407FEFDCF5C9A2E982F982D988091CD
:10183000640080628093640081E083BF889513BE5A
:10184000FCCF2D980E94C6038478843871F00E94E2
:10185000C6038471843131F188EC90E00E94EA047F
:101860000E94C60382FDEDCF3AC00E94C40388ECFB
:1018700090E00E94EA042F9882E090E00E94C10E5E
:101880008F3F29F06FEF82E090E00E94C90E84EF55
:1018900091E00E94EA042F9A0E94C603847884385B
:1018A000D9F3D5CF0E94C40388EC90E00E94EA04EB
:1018B0002E9882E090E00E94C10E882329F060E01B
:1018C00082E090E00E94C90E84EF91E00E94EA0459
:1018D0002E9A0E94C60384718431D9F3BDCF0E9431
:1018E000C40382E090E00E94E804882319F03E9A45
:1018F0003F9A02C03E983F9881E090E00E94E80441
:10190000482F4470942E81FF85C041112E9800EF1E
:101910001FEFE8E0EE2EF12C0E94C60386FF05C003
:101920002E9A2F9A0E94C40375C0992029F0043082
:10193000110511F42E9A2F9881E00E942607980134
:1019400017FF04C022273327201B310B27703327B2
:10195000C80117FD079673E0959587957A95E1F78D
:1019600017FF05C00197D701A21BB30B9D01AC0166
:101970005695542F4427579547954E565E4F60E035
:1019800070E03701621A730A8F3FBFEF9B074CF478
:101990000196685A7F4F40585F4F603B7105A1F731
:1019A0001EC05A01E4E9AE0EB11C6A01A0E0B0E02D
:1019B0008F3FFFEF9F0709F456C1FD01E60FF71FA8
:1019C000E455FA4FE491F0E02F01022E01C0440CDF
:1019D0000A94EAF7F60184884828448A44C180E0E2
:1019E0000E9426078FE090E00E94EA040F5F1F4FDD
:1019F0000931110509F090CF992011F02F9A2D98F7
:101A000080E991E00E94EA040E94C40382E995E023
:101A10000E94E00A82E390E00E94EA040E94C6036A
:101A20008111F8CF0E9419071092A4051092A30506
:101A30001092A2051092A1051092850110928401C6
:101A40005E01F1E1AF0EB11C98E6C92EDD24D394FE
:101A500022E2222E312C31E1432E512C4BE1642E17
:101A6000712C0E9419071092A4051092A3051092E0
:101A7000A2051092A10580919B0580939C050E9470
:101A8000C60380939B058091840190918501009706
:101A9000D9F45092A2054092A1057092A4056092DB
:101AA000A30540E150E06FE671E082E995E00E9415
:101AB0009A0388E00E9465078111F6C084E00E94C5
:101AC00065078111F1C0C4C0019709F0C1C080E26F
:101AD0000E946507882369F08091820190918301BB
:101AE0008D599E4FB6010E94F90E90938301809309
:101AF000820180E10E946507882369F0809180015E
:101B0000909181018D599E4FB6010E94F90E9093DC
:101B100081018093800180E80E946507882369F035
:101B2000809182019091830183599E4FB6010E945A
:101B3000F90E909383018093820180E40E946507EF
:101B4000882369F0809182019091830183599E4F8F
:101B5000B6010E94F90E909383018093820182E185
:101B6000E82E81E0F82E8E010F5F1F4F480184E0C0
:101B700090E00E94270FD7012D913C911197205C96
:101B80003F4FFC013183208312962D913C91139796
:101B9000205E3F4F33832283D4018D939D934D016B
:101BA000B6E0EB0EF11CE2E4EE16E1E0FE06F9F61B
:101BB0007801D701ED91FD917D016281738141E052
:101BC000808191810E94CE03EA14FB0491F7F80111
:101BD000819191918F010E94BF0F0A151B05B9F7E2
:101BE00000E010E041E060E270E0C8010E94CE0336
:101BF0000F5F1F4F00381105A9F700E010E041E02A
:101C0000B80180E490E00E94CE030F5F1F4F0034C4
:101C10001105A9F742E450E05093A2054093A105B5
:101C20001092A4051092A3058091820190918301E6
:101C30000E9435071092A2051092A1053092A405CA
:101C40002092A30580918001909181010E94350727
:101C500080E00E94260780E090E0892B09F401CF04
:101C60000E940000FECE2115310591F0FD01E60F26
:101C7000F71FE455FA4FE491F0E02F01062C02C063
:101C8000559447940A94E2F7F501808048284082F1
:101C90001196FFEFAF1ABF0AEFEFCE1ADE0AA83592
:101CA000B10509F085CE74CEA1E0B0E0B093850116
:101CB000A0938401CDCFDF92EF92FF920F931F93F9
:101CC000CF93DF93D82EF92EE42E062F10E0C80113
:101CD0000196880F0E94340683E00E943406CD2DC1
:101CE000DF2D0C0F1D1FC017D10789F0E7FE03C0C1
:101CF000FE01849101C088810E943406F82E80E0A4
:101D00000E9434068F2121968111EDCF01C081E020
:101D1000DF91CF911F910F91FF90EF90DF90089589
:101D2000ECEBF5E01382128288EE93E0A0E0B0E0E5
:101D300084839583A683B7838DE491E09183808328
:101D40008FEF9FEF95878487E2E9F5E01382128297
:101D50001186128680E183871086178215868FE5AB
:101D600091E0918380838DE691E095838483108A4E
:101D70001786128A118A81E0838B148A858B168AD2
:101D80000895F999FECF92BD81BDF89A992780B543
:101D90000895262FF999FECF1FBA92BD81BD20BDAF
:101DA0000FB6F894FA9AF99A0FBE01960895A1E237
:101DB0001A2EAA1BBB1BFD010DC0AA1FBB1FEE1FC5
:101DC000FF1FA217B307E407F50720F0A21BB30B10
:101DD000E40BF50B661F771F881F991F1A9469F78C
:101DE00060957095809590959B01AC01BD01CF01E8
:101DF000089597FB072E16F4009407D077FD09D0BD
:101E00000E940D0F07FC05D03EF4909581959F4FE1
:101E10000895709561957F4F0895AA1BBB1B51E1F2
:101E200007C0AA1FBB1FA617B70710F0A61BB70B4A
:101E3000881F991F5A95A9F780959095BC01CD01EF
:101E40000895EE0FFF1F0590F491E02D09940F9374
:101E50001F93CF93DF938230910510F482E090E0DE
:101E6000E0910E06F0910F0620E030E0A0E0B0E037
:101E7000309719F140815181028113814817590728
:101E8000C8F08417950769F4109731F012960C93F7
:101E9000129713961C9327C000930E0610930F06FB
:101EA00022C02115310519F04217530718F49A0181
:101EB000BD01EF01DF01F801DBCF21153105F9F09C
:101EC000281B390B2430310580F48A819B816115F0
:101ED000710521F0FB019383828304C090930F0668
:101EE00080930E06FE01329644C0FE01E20FF31FFE
:101EF0008193919322503109398328833AC02091EC
:101F00000C0630910D06232B41F420910E013091E7
:101F10000F0130930D0620930C0620910C01309197
:101F20000D012115310541F42DB73EB74091100147
:101F300050911101241B350BE0910C06F0910D0618
:101F4000E217F307A0F42E1B3F0B2817390778F090
:101F5000AC014E5F5F4F2417350748F04E0F5F1FEF
:101F600050930D0640930C068193919302C0E0E0DC
:101F7000F0E0CF01DF91CF911F910F910895CF93A2
:101F8000DF93009709F481C0FC013297138212821B
:101F9000A0910E06B0910F06109781F42081318137
:101FA000820F931F20910C0630910D0628173907D8
:101FB00051F5F0930D06E0930C0667C0ED0120E0AB
:101FC00030E0CE17DF0740F44A815B819E01411566
:101FD0005105F1F0EA01F5CFD383C28340815181ED
:101FE000840F951FC817D90759F488819981840FE8
:101FF000951F0296918380838A819B81938382833C
:102000002115310529F4F0930F06E0930E063DC02B
:10201000E901FB83EA8349915991C40FD51FEC175D
:10202000FD0761F480819181840F951F0296E9017B
:1020300099838883828193819B838A83E0E0F0E0A7
:1020400012968D919C911397009719F0FD01DC0178
:10205000F7CF8D919C9111979D012E5F3F4F820F7D
:10206000931F20910C0630910D062817390769F44B
:10207000309729F410920F0610920E0602C01382B8
:102080001282B0930D06A0930C06DF91CF910895B4
:0E20900081E090E0F8940C944D10F894FFCF8E
:10209E00FFFFFFFF00E1000000000000000010063F
:1020AE008000F1FFF1FFF1FF0F00F1FFF1FF0F00D4
:1020BE000F00F1FFF1FF0F00F1FFF1FFF1FF0F0035
:1020CE000F00F1FF0F000F000F000F00F1FF0F00C8
:1020DE000F0000C1808100000000000000B3055A0F
:1020EE000AD405C9051A06D805F60500000000E950
:1020FE00039A03E504E404E00AFCFF0000220B52FD
:10210E006F746174696E674375626544656D6F00C7
:00000001FF
