:100000000C9471030C9499030C9499030C94990328
:100010000C9499030C9499030C9499030C949903F0
:100020000C9499030C9499030C9408070C947A0788
:100030000C9499030C9499030C9499030C949903D0
:100040000C9499030C9499030C9499030C949903C0
:100050000C9499030C9499030C9499030C94F20951
:100060000C9499030C9499030C9499030C949903A0
:100070000C9499030C9499030C9499030C94990390
:100080000C9499030C9499030C9499030C94990380
:100090000C9499030C9499030C9499030C94990370
:1000A0000C9499030C9499030C949903F0F89C8E8A
:1000B0008783878E9CF8F00000FEFF030303030391
:1000C000070EFCF80000FEFF0303030303070EFC0A
:1000D000F80000FFFF00000000000000FFFF00002C
:1000E000FEFF8383838383C7EE7C380000F8FC0E19
:1000F00007030303070EFCF800003F7FE0C0808089
:10010000C0E07F3FFFFF01010101010101FFFF008E
:1001100000FFFF0C0C0C0C1C3E77E3C100007FFFBE
:10012000C0C0C0C0C0E0703F1F00001F3F70E0C0F3
:10013000C0C0E0703F1F00007FFFC1C1C1C1C1E36B
:10014000773E1C00001F3F70E0C0C0C0E0703F1F42
:10015000000000000001FFFF01000000D5F08D1439
:10016000A1C881CFD9F1AF2000080B000202020123
:10017000000904000001020200000524001001052E
:10018000240101010424020605240600010705815B
:100190000310004009040100020A000000070502E4
:1001A0000240000007058302400000040309041216
:1001B000010002EF020140412336800001010203E9
:1001C0000141726475696E6F204C4C43004172644A
:1001D00075696E6F204C656F6E6172646F00000010
:1001E0000000003E5B4F5B3E3E6B4F6B3E1C3E7C17
:1001F0003E1C183C7E3C181C577D571C1C5E7F5EC5
:100200001C00183C1800FFE7C3E7FF001824180083
:10021000FFE7DBE7FF30483A060E2629792926401A
:100220007F050507407F05253F5A3CE73C5A7F3E46
:100230001C1C08081C1C3E7F14227F22145F5F00D8
:100240005F5F06097F017F006689956A6060606074
:100250006094A2FFA29408047E040810207E20105F
:1002600008082A1C08081C2A08081E101010100C68
:100270001E0C1E0C30383E3830060E3E0E060000B6
:1002800000000000005F00000007000700147F145A
:100290007F14242A7F2A12231308646236495620C9
:1002A000500008070300001C2241000041221C00EE
:1002B0002A1C7F1C2A08083E0808008070300008AD
:1002C00008080808000060600020100804023E5181
:1002D00049453E00427F4000724949494621414913
:1002E0004D331814127F1027454545393C4A49497A
:1002F0003141211109073649494936464949291EE4
:1003000000001400000040340000000814224114D2
:1003100014141414004122140802015909063E4124
:100320005D594E7C1211127C7F494949363E41414C
:1003300041227F4141413E7F494949417F090909A5
:10034000013E414151737F0808087F00417F410011
:100350002040413F017F081422417F404040407FC0
:10036000021C027F7F0408107F3E4141413E7F090D
:100370000909063E4151215E7F091929462649494E
:10038000493203017F01033F4040403F1F2040208E
:100390001F3F4038403F631408146303047804038C
:1003A0006159494D43007F4141410204081020003A
:1003B0004141417F040201020440404040400003AB
:1003C00007080020545478407F2844443838444477
:1003D0004428384444287F385454541800087E096F
:1003E0000218A4A49C787F0804047800447D40008F
:1003F0002040403D007F1028440000417F40007CA9
:10040000047804787C080404783844444438FC18A0
:1004100024241818242418FC7C0804040848545484
:10042000542404043F44243C4040207C1C204020B1
:100430001C3C4030403C44281028444C9090907C18
:100440004464544C4400083641000000770000002A
:100450004136080002010204023C2623263C1EA16C
:10046000A161123A4040207A3854545559215555CB
:10047000794121545478412155547840205455797C
:10048000400C1E527212395555555939545454590D
:1004900039555454580000457C410002457D4200C6
:1004A00001457C40F0292429F0F0282528F07C54CF
:1004B0005545002054547C547C0A097F49324949EF
:1004C00049323248484832324A4848303A4141215C
:1004D0007A3A42402078009DA0A07D3944444439B6
:1004E0003D4040403D3C24FF2424487E4943662B48
:1004F0002FFC2F2BFF0929F620C0887E09032054EA
:100500005479410000447D413048484A32384040E7
:10051000227A007A0A0A727D0D19317D2629292F47
:1005200028262929292630484D402038080808085F
:1005300008080808382F10C8ACBA2F102834FA0061
:10054000007B000008142A142222142A14089500A3
:10055000220095AA005500AAAA55AA55AA00000093
:10056000FF00101010FF00141414FF001010FF0003
:10057000FF1010F010F0141414FC001414F700FF16
:100580000000FF00FF1414F404FC141417101F10D3
:10059000101F101F1414141F00101010F000000082
:1005A000001F101010101F10101010F0100000008D
:1005B000FF101010101010101010FF10000000FF9E
:1005C000140000FF00FF00001F10170000FC04F4DF
:1005D00014141710171414F404F40000FF00F71497
:1005E000141414141414F700F7141414171410101E
:1005F0001F101F141414F4141010F010F000001F3A
:10060000101F0000001F14000000FC140000F01078
:10061000F01010FF10FF141414FF141010101F001E
:10062000000000F010FFFFFFFFFFF0F0F0F0F0FF20
:10063000FFFF0000000000FFFF0F0F0F0F0F3844F7
:100640004438447C2A2A3E147E02020606027E02B8
:100650007E0263554941633844443C04407E201E79
:100660002006027E020299A5E7A5991C2A492A1CA8
:100670004C7201724C304A4D4D303048784830BC95
:10068000625A463D3E494949007E0101017E2A2ABF
:100690002A2A2A44445F444440514A444040444A40
:1006A00051400000FF0103E080FF000008086B6B71
:1006B000083612362436060F090F060000181800F7
:1006C00000001010003040FF0101001F01011E005A
:1006D000191D1712003C3C3C3C00000000007D143A
:1006E0008B1511241FBECFEFDAE0DEBFCDBF12E0C5
:1006F000A0E0B1E0EAE5F5E302C005900D92A03577
:10070000B107D9F726E0A0E5B2E001C01D92A33EF3
:10071000B207E1F713E0C0E7D3E004C02197FE0180
:100720000E949E18CF36D107C9F70E94DB0E0C94A9
:10073000A01A0C94000020915602211103C08FEFE3
:100740009FEF08955FB7F89422E02093E90020918D
:10075000F20030E01216130614F421E030E0422FCC
:10076000FC0184E6415038F028988093550290911E
:10077000F1009193F7CF2115310521F08091F2001E
:10078000882319F05FBFC90108958BE68093E800C4
:10079000F9CF2FB7F89483E08093E9009091E800B7
:1007A000892F807295FF04C09091F20080E4891B2C
:1007B0002FBF0895CF93DF931F92CDB7DEB7698324
:1007C000DC01ED91FC910280F381E02D41E050E0ED
:1007D000BE016F5F7F4F09950F90DF91CF91089514
:1007E00083E08093E9008091F200882319F08AE386
:1007F0008093E80008950E94C90390E00895CF9384
:10080000DF931F92CDB7DEB7FC018485958597FDF8
:1008100005C02FEF3FEF358724870BC0CE0101962F
:100820000E949B03019719F4898190E002C08FEF29
:100830009FEF0F90DF91CF9108950F931F93CF9368
:10084000DF931F92CDB7DEB78C01FC0184859585BF
:1008500097FF0EC0CE0101960E949B03019719F4E9
:10086000898190E002C08FEF9FEFF8019587848720
:10087000F801848595850F90DF91CF911F910F919D
:100880000895FC018485958597FD0BC09FB7F8946A
:1008900082E08093E9008091F2009FBF90E0019692
:1008A00008959FB7F89482E08093E9008091F20068
:1008B0009FBF90E008958F929F92AF92BF92CF9288
:1008C000DF92EF92FF920F931F93CF93DF936C0110
:1008D0007B018A018091BF01882309F45CC080916B
:1008E0005602882309F457C08091540280FF05C046
:1008F0008091E00082608093E000E801B12C8AEFF3
:10090000A82E93E0892E2AE3922E209711F4BB2083
:10091000D9F10E94C90381110AC0AA94AA20D9F171
:1009200061E070E080E090E00E94B809EECF282FEF
:1009300030E0C217D3070CF48C2F9FB7F894809245
:10094000E9002091E80025FF1DC0282F30E0C21BE0
:10095000D30BF701815020F041914093F100FACF81
:10096000E20EF31EBB2019F09092E8000AC08091BD
:10097000E80085FD07C09092E800BB24B39420975F
:1009800009F0B12C9FBFC1CF5D9884E680935302DC
:100990001016110644F081E090E0F6019383828303
:1009A00080E090E001C0C801DF91CF911F910F91CD
:1009B000FF90EF90DF90CF90BF90AF909F908F907F
:1009C0000895009769F0FC0101900020E9F7319744
:1009D000AF01481B590BBC018DE596E00C943C0A15
:1009E00080E090E0089580E0E7E5F2E081118FEF8C
:1009F000002481938193819381930394D1F7089587
:100A0000E7E5F2E0A0E0B8E000800EBC8111012C27
:100A10001197A0FDFDCF0192B9F70DB408952F9263
:100A20003F924F925F926F927F928F929F92AF927E
:100A3000BF92CF92DF92EF92FF920F931F93CF93CB
:100A4000DF93CDB7DEB7A4970FB6F894DEBF0FBE25
:100A5000CDBF4B015C01F42E9B01AC010E948418B8
:100A6000882319F083E492E027C024013501E8943B
:100A700077F82FEF3FEF4FE75FE7C301B2010E9426
:100A8000841881110DC02FEF3FEF4FE75FE7C301DF
:100A9000B2010E94911518161CF487E492E00CC074
:100AA0002FEF3FEF4FE75FE4C501B4010E94391813
:100AB00018162CF48BE492E00E94E104B8C02FEFEA
:100AC0003FEF4FE75FECC501B4010E94911587FD30
:100AD000F1CF20E030E0A901C501B4010E949115D9
:100AE00087FF0BC06DE28DE596E00E94810A3C0114
:100AF000B7FAB094B7F8B09402C0612C712C10E032
:100B000060E070E080E09FE3F11641F020E030E02B
:100B100040E251E40E9491171F5FF6CFA5019401B6
:100B20000E9425174B015C010E940A186AA3C72E78
:100B3000D82EE92E19A2262F372F482F592F8E0194
:100B40000F5D1F4F0BA31CA39AE0292E312C412CC3
:100B5000512CCA01B901A20191010E940217605DE6
:100B6000F80162938F01211531054105510589F77F
:100B7000CF010E94E1048301080F191FFF2009F42F
:100B800055C06AA17C2D8D2D9E2D0E9496159B012E
:100B9000AC01C501B4010E9424174B015C016EE257
:100BA0008DE596E00E94810A080F191F8AE0282E21
:100BB000312C412C512C20E030E040E251E4C501C1
:100BC000B4010E94F7154B015C010E940A189B01B9
:100BD00040E050E019A2CBA0DCA0762E3AA3642E10
:100BE000E52ECA01B901A20191010E940217605DC0
:100BF000F60162936F01211531054105510589F711
:100C0000CF010E94E104080F191F672D7AA1862DDC
:100C10009E2D0E9496159B01AC01C501B4010E9456
:100C200024174B015C01FA94F110C5CFC801A496BA
:100C30000FB6F894DEBF0FBECDBFDF91CF911F91ED
:100C40000F91FF90EF90DF90CF90BF90AF909F906B
:100C50008F907F906F905F904F903F902F9008956E
:100C600020916706282329F490916606982381E055
:100C700009F480E008958091780681110DC082E02A
:100C80008093740684E08093750610927706109224
:100C9000760681E08093780684E796E00895409197
:100CA000DC065091DD062091DA063091DB06421712
:100CB0005307B4F49091E8009570E1F39091E80047
:100CC00092FD19C08093F1008091DC069091DD06C1
:100CD00001968F739927892B19F48EEF8093E80082
:100CE0008091DC069091DD0601969093DD0680935D
:100CF000DC0681E0089580E00895DF92EF92FF9294
:100D00000F931F93CF93DF93D82E8A017B01E40EBC
:100D1000F51EEB01CE15DF0571F0D7FE03C0FE0115
:100D2000849101C088810E944F0621968111F2CFE3
:100D30008FEF9FEF01C0C801DF91CF911F910F91FD
:100D4000FF90EF90DF900895615030F02091F10016
:100D5000FC0120830196F8CF289884E68093550201
:100D600008953FB7F8948091D6069091D706A09148
:100D7000D806B091D90626B5A89B05C02F3F19F01B
:100D80000196A11DB11D3FBFBA2FA92F982F88270B
:100D9000820F911DA11DB11DBC01CD0142E0660F66
:100DA000771F881F991F4A95D1F708950F931F93B6
:100DB000CF93DF931F92CDB7DEB782E0898342E401
:100DC00050E069E671E080E80E947D060E943B06E3
:100DD000DC0112960D911C9113970115110589F0F4
:100DE000D801ED91FC910280F381E02DBE016F5F8F
:100DF0007F4FC801099597FD04C0F8010085118552
:100E0000ECCF89810F90DF91CF911F910F910895C1
:100E10001F920F920FB60F9211248F939F93809180
:100E2000E1009091E100937F9093E10083FF0FC078
:100E30001092E90091E09093EB001092EC0092E3A5
:100E40009093ED001092560298E09093F00082FF8C
:100E500020C093E09093E9009091F200992319F05B
:100E60009AE39093E80090915302992339F090917E
:100E70005302915090935302992389F19091550216
:100E8000992339F0909155029150909355029923EE
:100E900041F184FF10C08091E2008E7E81608093DA
:100EA000E2008091E1008F7E8093E1008091540206
:100EB0008E7E806111C080FF16C08091E2008E7E20
:100EC00080618093E2008091E1008E7E8093E1005A
:100ED000809154028E7E81608093540204C05D9A9A
:100EE000CDCF289AD6CF9F918F910F900FBE0F90A4
:100EF0001F9018951F920F920FB60F921124CF9248
:100F0000DF92EF92FF920F931F932F933F934F9394
:100F10005F936F937F938F939F93AF93BF93EF9361
:100F2000FF93CF93DF93CDB7DEB76C97DEBFCDBF16
:100F30001092E9008091E80083FFFBC168E0CE01D8
:100F400045960E94A40682EF8093E8008D8987FF72
:100F500005C09091E80090FFFCCF03C09EEF9093F6
:100F6000E800982F907609F0C6C09E894F89588D69
:100F70002F89F88C91110CC0803829F48091D0060B
:100F80008093F10002C01092F1001092F10045C16F
:100F9000913051F4811141C14130510509F03DC1F9
:100FA0008091D0068D7F0BC0933061F4811135C1E3
:100FB0004130510509F031C18091D00682608093A3
:100FC000D0062BC1953049F48091E80080FFFCCF1A
:100FD000822F80688093E30020C1963009F05EC0C4
:100FE0000B8D1C8D22E01092E9001092DD0610920C
:100FF000DC06F21232C01092DB061092DA060E9472
:10100000D60699E0BE016F5F7F4FDB01E92F1D928D
:10101000EA95E9F79983FA8291E09E8390EA9887AE
:101020009AEF99872091DC063091DD06275F3F4FCC
:101030003C832B838D831092E9001092DD06109281
:10104000DC061093DB060093DA0649E050E080E00E
:101050000E947D060E94D606E0C01093DB06009336
:10106000DA060E943B06DC0112960D911C91139743
:101070000115110509F4BBC0D801ED91FC91048064
:10108000F581E02DBE016B5E7F4FC8010995009789
:1010900009F0C7C0F80100851185EACF973009F43F
:1010A00045C1983021F481E08093F100B6C09930B9
:1010B00009F0B3C0837009F039C1E1E2F2E081E0E8
:1010C00031E096E32081211109C08EE78093EA0088
:1010D0001092EA008F89809356029FC08093E900A6
:1010E0003093EB0021912093EC009093ED008F5F03
:1010F000873041F7EACF8B8D9C8D1092E9001092DA
:10110000DD061092DC069093DB068093DA06898D6B
:10111000811153C08E899D89913A49F4813209F039
:1011200005C147E050E068EB71E080E0BBC0913260
:1011300009F0FCC0833269F48F89988DA0E0B0E09B
:101140008093C0019093C101A093C201B093C301E9
:1011500064C0803269F48091E80082FFFCCF67E0D0
:1011600088EB91E00E94A4068BEF8093E80055C0C5
:10117000823209F052C08F898093BF01EEEFFFE702
:10118000859194918B3F9C4D19F0E0E0F8E002C00E
:10119000EEEFFAE08091B8019091B901A091BA0107
:1011A000B091BB01803B9440A105B10509F09EC000
:1011B0008091BF0180FF79C099C00E943B06FC016D
:1011C000028113810115110509F4B0C0D801ED9118
:1011D000FC910190F081E02DBE016B5E7F4FC80154
:1011E000099581111AC0F80100851185EBCFF1E056
:1011F000FF1609F44EC0F3E0FF1298C08F898823D0
:1012000009F44AC0823089F440E860E18DEC91E055
:101210000E941115882309F489C08EEF8093E8009D
:1012200088C018161906CCF381C0813029F440E833
:101230006BE081EC91E0ECCF833009F077C00E9445
:101240003B06DC011296ED90FC9013978E010F5F28
:101250001F4F6801E114F10479F0D701ED91FC9181
:101260000680F781E02DB801C7010995080F111D0F
:10127000F701E084F184EECFD8011C92F6010190D1
:101280000020E9F73197BF016C197D0940E0C601E4
:10129000BFCF6FEA71E002C06BEA71E0FB014491DD
:1012A00050E080E80E947D06B8CFEE3F2AE0F207CA
:1012B00051F0808191818737A7E79A0721F09093B9
:1012C000FF0A8093FE0A87E797E7918380838091E6
:1012D00060008093DE069BE088E10FB6F894A89545
:1012E000809360000FBE9093600097CF80819181C2
:1012F0008737974709F091CFA89580916000886162
:10130000809360008091DE0680936000EE3FBAE03B
:10131000FB0739F08091FE0A9091FF0A9183808348
:101320007CCF1092FF0A1092FE0A77CF81E2809361
:10133000EB006C960FB6F894DEBF0FBECDBFDF9109
:10134000CF91FF91EF91BF91AF919F918F917F913D
:101350006F915F914F913F912F911F910F91FF904E
:10136000EF90DF90CF900F900FBE0F901F901895C9
:101370008F929F92AF92BF92CF92DF92EF92FF92A5
:101380006B017C010E94B1064B015C01C114D104C8
:10139000E104F104F1F00E94B106DC01CB018819EF
:1013A0009909AA09BB09883E9340A105B10570F3CC
:1013B00021E0C21AD108E108F10888EE880E83E026
:1013C000981EA11CB11CC114D104E104F10419F749
:1013D000DDCFFF90EF90DF90CF90BF90AF909F90C8
:1013E0008F9008951F920F920FB60F9211242F9392
:1013F0003F938F939F93AF93BF938091D206909129
:10140000D306A091D406B091D5063091D10623E041
:10141000230F2D3720F40196A11DB11D05C026E82C
:10142000230F0296A11DB11D2093D1068093D206F1
:101430009093D306A093D406B093D5068091D60698
:101440009091D706A091D806B091D9060196A11D1A
:10145000B11D8093D6069093D706A093D806B0937B
:10146000D906BF91AF919F918F913F912F910F908E
:101470000FBE0F901F901895CF92DF92EF92FF92C0
:101480000F931F93CF93DF936C017A018B01C0E020
:10149000D0E0CE15DF0581F0D8016D918D01D60128
:1014A000ED91FC910190F081E02DC6010995892B09
:1014B00011F02196EECF7E01C701DF91CF911F91F0
:1014C0000F91FF90EF90DF90CF90089580389105B5
:1014D000B8F460347105A0F490E121E061FD24E0EE
:1014E00060FD220F62FD2295687F969FD001112436
:1014F000A80FA95ABD4F8C91822B40FF82278C9355
:1015000008952F923F924F925F926F927F928F92A7
:101510009F92AF92BF92CF92DF92EF92FF920F9382
:101520001F93CF93DF93CDB7DEB727970FB6F8940D
:10153000DEBF0FBECDBF9F838E836A30A1F4DC0176
:1015400055962C91559751968D919C915297B8E054
:101550002B9F800D911D1124EE81FF81928B818B39
:10156000108A1786ADC06D3009F4AAC0AE81BF8164
:101570001F960D911C91509700381105BCF0EE811B
:10158000FF812589422F50E087859089F6E02F9FC3
:10159000800D911D1124AE81BF8150969C938E9336
:1015A0001F9756962C91211175C08AC0EE81FF813C
:1015B00081889288F0E48F1691040CF7AE81BF8188
:1015C00055963C90C801B5E03B9E800D911D1124BD
:1015D00018161906A4F6432C512CC401E8E03E9ECF
:1015E000800D911D1124181619064CF6AE81BF818D
:1015F0005496BC91BC83EE81FF81F389FD8325E085
:10160000629FB0011124CB0182529E4F3C0119828E
:10161000F3012490F981F53009F4212C640128E0CC
:101620002B8320FE03C03D813A8302C08C818A83D4
:101630009A81911104C0AC81BD81AB17B9F07801DA
:101640008E2D801B831590F456018A2D8C198315DD
:1016500048F44A81B501C7010E94660AEFEFAE1A4D
:10166000BE0AF3CFFFEFEF1AFF0AEACF26942B81D1
:1016700021502B83C40CD51C2111D3CF39813F5F5E
:101680003983040D151DC30101963C01363009F064
:10169000BFCF75CF6AEF64039001659F300D1124B1
:1016A00020583F4F281739075CF4AE81BF81ED9178
:1016B000FC9111970190F081E02D6AE0CD01099530
:1016C00081E090E027960FB6F894DEBF0FBECDBF45
:1016D000DF91CF911F910F91FF90EF90DF90CF900E
:1016E000BF90AF909F908F907F906F905F904F9042
:1016F0003F902F9008950895089580E090E0089518
:101700000E948B1A2D9A0895BC0180E090E00C9401
:10171000B8098FB18095807F669B88601C9B846030
:1017200008950C94B5164F925F926F927F928F92AC
:101730009F92AF92BF92CF92DF92EF92FF920F9360
:101740001F93CF93DF93CDB7DEB7A4970FB6F8946E
:10175000DEBF0FBECDBF9A8F898F80E190E00E94DF
:10176000A4188C018091680190916901A0916A018F
:10177000B0916B0189839A83AB83BC83A98DBA8DA9
:101780004D905D906D907C9080916C0190916D0179
:10179000A0916E01B0916F018D839E83AF83B88756
:1017A000A98DBA8D14968D919D910D90BC91A02D0F
:1017B00089879A87AB87BC8780917001909171016E
:1017C000A0917201B09173018D879E87AF87B88B0E
:1017D000A98DBA8D18968D919D910D90BC91A02DDB
:1017E000898B9A8BAB8BBC8B809174019091750126
:1017F000A0917601B09177018D8B9E8BAF8BB88FC6
:10180000A98DBA8D1C968D909D90AD90BC901F9720
:10181000A301920169817A818B819C810E94F715D5
:101820006B017C0129853A854B855C856D817E81C4
:101830008F8198850E94F7159B01AC01C701B60105
:101840000E9424176B017C0129893A894B895C89A4
:101850006D857E858F8598890E94F7159B01AC0167
:10186000C701B6010E9424176B017C01A5019401F8
:101870006D897E898F89988D0E94F7159B01AC0137
:10188000C701B6010E942417698F7A8F8B8F9C8FB6
:1018900029853A854B855C8569817A818B819C811C
:1018A0000E94F7156B017C012D813E814F81588587
:1018B000C301B2010E94F7159B01AC01C701B6013B
:1018C0000E9425176B017C01A50194016D857E8521
:1018D0008F8598890E94F7159B01AC01C701B6015D
:1018E0000E9424176B017C012D893E894F89588DF8
:1018F00069897A898B899C890E94F7159B01AC01C3
:10190000C701B6010E9425176D8F7E8F8F8F98A318
:1019100029893A894B895C8969817A818B819C818B
:101920000E94F7156B017C01A50194016D817E81F8
:101930008F8198850E94F7159B01AC01C701B60104
:101940000E9425176B017C012D853E854F855889A6
:10195000C301B2010E94F7159B01AC01C701B6019A
:101960000E9425176B017C012D893E894F89588D76
:1019700069857A858B859C850E94F7159B01AC0152
:10198000C701B6010E94241769A37AA38BA39CA365
:10199000A501940169817A818B819C810E94F71550
:1019A0006B017C0129893A894B895C896D817E8133
:1019B0008F8198850E94F7159B01AC01C701B60184
:1019C0000E9424176B017C012D853E854F85588927
:1019D00069857A858B859C850E94F7159B01AC01F2
:1019E000C701B6010E9425176B017C012D893E8934
:1019F0004F89588DC301B2010E94F7159B01AC01BC
:101A0000C701B6010E9425174B015C01298D3A8D53
:101A10004B8D5C8DCA01B9010E94F7156B017C01E9
:101A20002D8D3E8D4F8D58A1CA01B9010E94F71529
:101A30009B01AC01C701B6010E9425176B017C0117
:101A400029A13AA14BA15CA1CA01B9010E94F715D5
:101A50009B01AC01C701B6010E9425176B017C01F7
:101A6000A5019401C501B4010E94F7159B01AC01C9
:101A7000C701B6010E9425170E9444186B017C0122
:101A80009B01AC01698D7A8D8B8D9C8D0E94911785
:101A9000F8016083718382839383A70196016D8D22
:101AA0007E8D8F8D98A10E949117D80114966D9309
:101AB0007D938D939C931797A701960169A17AA1B5
:101AC0008BA19CA10E949117F80160877187828782
:101AD0009387A7019601C501B4010E949117D8010F
:101AE0001C966D937D938D939C931F97E8E6F1E090
:101AF0004D915D916D917D9141935193619371935E
:101B000081E0E837F807A1F7C801A4960FB6F8946A
:101B1000DEBF0FBECDBFDF91CF911F910F91FF9020
:101B2000EF90DF90CF90BF90AF909F908F907F907D
:101B30006F905F904F900C943C192F923F924F9270
:101B40005F926F927F928F929F92AF92BF92CF924D
:101B5000DF92EF92FF920F931F93CF93DF93E0E614
:101B6000F1E028E631E0DF014D915D9184179507A2
:101B700009F40EC12A173B07B9F721913191621779
:101B8000730709F405C121E0E836F207B1F78B01CC
:101B9000EC018CE0869FF001879FF00D1124E0504E
:101BA000FF4FC480D580E680F78020E030E0A901B7
:101BB000C701B6010E94391887FD09C020E030E056
:101BC00040E05FE3C701B6010E94251708C020E08E
:101BD00030E040E05FE3C701B6010E9424170E9495
:101BE00003185B0120E2A20EB11C8CE0809FF00183
:101BF000819FF00D1124E050FF4FC080D180E28022
:101C0000F38020E030E0A901C701B6010E94391835
:101C100020E030E040E05FE387FD05C0C701B6018A
:101C20000E94251704C0C701B6010E9424170E9414
:101C300003187B0120E2E20EF11C8CE08C9FF00186
:101C40008D9FF00D1124E050FF4F44805580668039
:101C5000778020E030E0A901C301B2010E94391869
:101C600020E030E040E05FE387FD05C0C301B20142
:101C70000E94251704C0C301B2010E9424170E94CC
:101C800003188B01005E1F4F8CE08C9FF0018D9F2D
:101C9000F00D1124E050FF4F40805180628073802E
:101CA00020E030E0A901C301B2010E94391820E010
:101CB00030E040E05FE387FD05C0C301B2010E9450
:101CC000251704C0C301B2010E9424170E94031803
:101CD000EB01A0966501C01AD10AD7FE03C0D194CA
:101CE000C194D10847018C1A9D0A97FE03C09194B4
:101CF000819491088C149D0454F49E2D8F2D7501B0
:101D0000A92EB82E9C2F8D2FE801092F182FEC1625
:101D1000FD0654F4902F812F8501A92EB82E9C2FFB
:101D20008D2FE701E92EF82E17012C1A3D0A250107
:101D3000401A510A57FE03C0519441945108310191
:101D400037FE03C08FEF681A780A759467940A15F6
:101D50001B0514F08FEF01C081E0A82E880FBB088F
:101D6000EC16FD06ACF041E08C149D041CF4BE01A1
:101D7000C80102C0B801CE010E94660A6418750845
:101D800077FE04C00A0D1B1D620C731C2196E8CF60
:101D9000DF91CF911F910F91FF90EF90DF90CF9047
:101DA000BF90AF909F908F907F906F905F904F907B
:101DB0003F902F900895CF93DF93CDB7DEB7E09794
:101DC0000FB6F894DEBF0FBECDBF789484B58260A5
:101DD00084BD84B5816084BD85B5826085BD85B5CF
:101DE000816085BD80916E00816080936E0010924D
:101DF00081008091810082608093810080918100C8
:101E00008160809381008091800081608093800058
:101E10008091910082608093910080919100816017
:101E200080939100809190008160809390008091D8
:101E3000C10084608093C1008091C1008260809362
:101E4000C1008091C10081608093C1008091C30076
:101E500081608093C3008091C00082608093C00045
:101E60008091C20081608093C20080917A0084607A
:101E700080937A0080917A00826080937A008091CA
:101E80007A00816080937A0080917A0080688093E4
:101E90007A00109256021092D0061092540280914D
:101EA000D70081608093D70080EA8093D80089B5FD
:101EB000806189BD89B5826089BD09B400FEFDCF0E
:101EC00061E070E080E090E00E94B8098091D80065
:101ED0008F7C80618093D8008091E000807F809328
:101EE000E0008091E1008E7E8093E1008DE08093A0
:101EF000E200559A209A81EC80937C0085B1806F36
:101F000085B984B1877E84B984B1876E84B95E9ABD
:101F10005F988AB1806D8AB9769A6E9881B3806F26
:101F200081BB899880B38D7080BB80E58CBD81E0DA
:101F30008DBD85E090E00E94840B5F9A85E090E083
:101F40000E94840B5E985C98ECE5F1E084918EBD74
:101F500000000DB407FEFDCF319621E0E936F2070F
:101F6000A9F75C9A81E880936400809165008160A4
:101F70008093650080E00E9400050E94890B87FF26
:101F800024C05C9885EA8EBD00000DB407FEFDCF2D
:101F90005C9A2E982F982D9880916400806280938F
:101FA000640081E083BF889513BEFCCF2D980E940A
:101FB000890B8478843871F00E94890B8471843194
:101FC00031F188EC90E00E94840B0E94890B82FD25
:101FD000EDCF3AC00E94820B88EC90E00E94840B07
:101FE0002F9882E090E00E94B5168F3F29F06FEFA6
:101FF00082E090E00E94BD1684EF91E00E94840B85
:102000002F9A0E94890B84788438D9F3D5CF0E9407
:10201000820B88EC90E00E94840B2E9882E090E086
:102020000E94B516882329F060E082E090E00E94CB
:10203000BD1684EF91E00E94840B2E9A0E94890BBA
:1020400084718431D9F3BDCF0E94820B82E090E08D
:102050000E94910B882319F03E9A3F9A02C03E9845
:102060003F9881E090E00E94910B382F3470D32E7E
:1020700081FF89C031112E98F0EF6F2E77247A946A
:1020800008E010E00E94890B86FF05C02E9A2F9A67
:102090000E94820B78C0DD2031F044E064167104A8
:1020A00011F42E9A2F9881E00E940005930177FE8B
:1020B00004C0222733272619370927703327C30185
:1020C00077FC0796E3E095958795EA95E1F777FE2B
:1020D00005C00197D801A21BB30B9D01AC01569519
:1020E000542F442757954795495A5D4F60E070E05B
:1020F0004801821A930A8F3FBFEF9B074CF4019669
:10210000685A7F4F40585F4F603B7105A1F71EC072
:102110005A01E4E9AE0EB11C7A01A0E0B0E08F3FB5
:10212000FFEF9F0709F4BAC3FD01E60FF71FE4555F
:10213000FF4FE491F0E02F01022E01C0440C0A94FD
:10214000EAF7F701C4884C28448AA8C380E00E94BB
:1021500000058FE090E00E94840BFFEF6F1A7F0A6A
:1021600029E16216710409F08DCFDD2011F02F9A5C
:102170002D9880E991E00E94840B0E94820B8DE5EE
:1021800096E00E94461582E390E00E94840B0E9434
:10219000890B8111F8CF82E4809368060E94F304D2
:1021A00010926F0610926E0610926D0610926C06D9
:1021B00010925202109251020FEF1FEF0E94F3048F
:1021C00010926F0610926E0610926D0610926C06B9
:1021D00080916606809367060E94890B809366064D
:1021E0008091510290915202009749F580915B06CF
:1021F00090915C069C01220F331F820F931F019662
:1022000040E450E0481B590B50936D0640936C0618
:102210008BE190E090936F0680936E068091570655
:10222000909158060E94E10488E00E9430068111D6
:1022300056C384E00E943006811151C324C3019724
:1022400009F021C30E94890B85FF04C088EA91E050
:102250000E94930B0E94890B84FF04C088E991E0DF
:102260000E94930B0E94890B87FF04C088E891E0CD
:102270000E94930B0E94890B86FF04C088E791E0BF
:102280000E94930B84E00E94300681112FC388E0E6
:102290000E94300681112AC3AAECB1E0BA83A98357
:1022A00050E0252E51E0352E38AA2FA6A981BA81FB
:1022B0006D917C91072E000C880B990B0E9498154C
:1022C0006F83788789879A87E981FA816281738130
:1022D000072E000C880B990B0E9498156B877C8742
:1022E0008D879E87A981BA8114966D917C911597EF
:1022F000072E000C880B990B0E9498156F87788B1E
:10230000898B9A8B209168013091690140916A0113
:1023100050916B012B833C834D835E8340906C0115
:1023200050906D0160906E0170906F01809070010F
:1023300090907101A0907201B0907301C0907401EF
:10234000D0907501E0907601F0907701A50194019D
:10235000C501B4010E94F7156B8B7C8B8D8B9E8B16
:10236000A7019601C701B6010E94F7156F8B788F00
:10237000898F9A8FA5019401C301B2010E94F715BC
:102380006B8F7C8F8D8F9E8FA70196016B817C81D7
:102390008D819E810E94F7156F8F78A389A39AA3E0
:1023A000A7019601C301B2010E94F7156BA37CA39C
:1023B0008DA39EA3A50194016B817C818D819E815B
:1023C0000E94F7156FA378A789A79AA7A301920186
:1023D000C301B2010E94F7156BA77CA78DA79EA72A
:1023E000A7019601C501B4010E94F7154B015C01DC
:1023F000A30192016B817C818D819E810E94F715E2
:102400002B013C012F89388D498D5A8D6B897C8930
:102410008D899E890E9425179B01AC010E9425177A
:102420009B01AC0160E070E080E89FE30E9424170C
:102430002F81388549855A850E94F7156B017C01EB
:102440002F8D38A149A15AA16B8D7C8D8D8D9E8DCC
:102450000E9424179B01AC010E9425172B853C8507
:102460004D855E850E94F7159B01AC01C701B60141
:102470000E9425176B017C012FA138A549A55AA5FB
:102480006BA17CA18DA19EA10E9425179B01AC018F
:102490000E9425172F85388949895A890E94F71586
:1024A0009B01AC01C701B6010E942517AFA5B8A9D1
:1024B0006D937D938D939C9313972BA53CA54DA570
:1024C0005EA56F89788D898D9A8D0E9425179B0155
:1024D000AC010E9425179B01AC0160E070E080E830
:1024E0009FE30E9424172B853C854D855E850E94C5
:1024F000F7156B017C012F8D38A149A15AA16B8D75
:102500007C8D8D8D9E8D0E9425179B01AC010E94B4
:1025100025172F81388549855A850E94F7159B011B
:10252000AC01C701B6010E9425176B017C01A30114
:102530009201C501B4010E9424179B01AC010E94C5
:1025400025172F85388949895A890E94F7159B01DB
:10255000AC01C701B6010E942517EFA5F8A9648355
:102560007583868397832FA138A549A55AA56BA1AA
:102570007CA18DA19EA10E9424179B01AC010E9409
:1025800025172F81388549855A850E94F7156B01DB
:102590007C01A3019201C501B4010E9425179B0192
:1025A000AC010E9425172B853C854D855E850E94D8
:1025B000F7159B01AC01C701B6010E9425176B01FD
:1025C0007C012BA53CA54DA55EA56B897C898D89D9
:1025D0009E890E9425179B01AC010E9425179B0133
:1025E000AC0160E070E080E89FE30E9424172F8533
:1025F000388949895A890E94F7159B01AC01C701A6
:10260000B6010E942517AFA5B8A918966D937D93C2
:102610008D939C931B97E981FA813696FA83E9831F
:102620001C96B8ABAFA720E631E02A173B0709F0AC
:102630003DCE1093610100936001109363010093FC
:102640006201109365010093640110936701009388
:102650006601F12CE12C30E2D32E42E4C42E1A8222
:102660001982D10118968C90189719969C901997F9
:102670001A96AC901A971B96BC902F2D3E2D4D2D7F
:102680005C2DB401C5010E94911587FF17C0E98137
:10269000FA81F0936101E09360011093630100936C
:1026A0006201109365010093640110936701009328
:1026B0006601F82CE92CDA2CCB2C21C02F2D3E2DD5
:1026C0004D2D5C2DB401C5010E949115811117C0DB
:1026D000E0E6F1E080E090E0219131912F3F3F4F23
:1026E00051F4880F991FFC01E05AFE4F89819A81AD
:1026F0009183808304C001968430910569F7A98194
:10270000BA811196BA83A983BCE02B0E311CE981F2
:10271000FA81389709F0A5CF61E070E080E090E0A1
:102720000E949D0D63E070E080E090E00E949D0DAE
:1027300064E070E080E090E00E949D0D62E070E057
:1027400081E090E00E949D0D65E070E081E090E006
:102750000E949D0D63E070E082E090E00E949D0D7C
:1027600066E070E082E090E00E949D0D67E070E01E
:1027700083E090E00E949D0D65E070E084E090E0D1
:102780000E949D0D67E070E084E090E00E949D0D46
:1027900066E070E085E090E00E949D0D67E070E0EB
:1027A00086E090E00E949D0D80915002882309F4FC
:1027B0006AC020E430E030936D0620936C061092DE
:1027C0006F0610926E0687E292E00E94E10460912B
:1027D00068017091690180916A0190916B0142E0FA
:1027E0000E940F0540E450E050936D0640936C0644
:1027F00080E190E090936F0680936E068BE292E00A
:102800000E94E10460916C0170916D0180916E01F4
:1028100090916F0142E00E940F05A0E4B0E0B093F8
:102820006D06A0936C06E0E2F0E0F0936F06E09393
:102830006E068FE292E00E94E10460917001709157
:102840007101809172019091730142E00E940F0525
:1028500020E430E030936D0620936C064EE250E0A9
:1028600050936F0640936E0683E392E00E94E1046A
:10287000609174017091750180917601909177015A
:1028800042E00E940F0580E00E94000580E090E099
:10289000892B09F493CC0E94000090CC21153105BE
:1028A00091F0FD01E60FF71FE455FF4FE491F0E0D2
:1028B0002F01082C02C0559447940A94E2F7F501C1
:1028C000C0804C2840821196FFEFAF1ABF0AEFEF8D
:1028D000EE1AFE0AA835B10509F021CC10CC81E032
:1028E00090E09093520280935102CDCF809150029C
:1028F00091E0892780935002CFCC109283061092EA
:10290000820688EE93E0A0E0B0E080938406909386
:102910008506A0938606B09387068EEF91E090938C
:102920008106809380068FEF9FEF90938D068093B2
:102930008C061092600610925F0610926606109246
:10294000670680E18093680610926506109264061F
:1029500010926A0680E192E090935E0680935D0695
:102960008EE192E0909362068093610610926D066C
:1029700010926C0610926F0610926E0681E08093A2
:102980007006109271068093720610927306109270
:1029900058061092570610925A0610925906109235
:1029A0005C0610925B066CE070E080E090E00E94B4
:1029B000C519009799F090935806809357062BE01D
:1029C00030E030935A062093590620915B063091EF
:1029D0005C06232BC1F4FC01108215C080915706C0
:1029E00090915806009711F00E943C1910925806D9
:1029F0001092570610925C0610925B0610925A06CF
:102A00001092590608958BE090E090935C068093B5
:102A10005B0667E372E080915706909158060C942C
:102A2000991ADF92EF92FF920F931F93CF93DF9348
:102A3000D82EF92EE42E062F10E0C8010196880F3B
:102A40000E944F0683E00E944F06CD2DDF2D0C0F14
:102A50001D1FC017D10789F0E7FE03C0FE01849156
:102A600001C088810E944F06F82E80E00E944F0628
:102A70008F2121968111EDCF01C081E0DF91CF91AF
:102A80001F910F91FF90EF90DF9008950F931F9388
:102A9000CF93DF938C0181E090E00E94910B80FF47
:102AA00032C08AE090E00E94910B9FEF980F9E3F0A
:102AB00050F522E330E0D80150963C932E931F97B7
:102AC00028E330E052963C932E935197CBE0D0E030
:102AD000D801ED91FC910190F081E02D682FC801A3
:102AE0000995CE010E94910B2196C131D10581F744
:102AF00080E00E94000588EE93E0DF91CF911F9166
:102B00000F910C94840BDF91CF911F910F91089539
:102B100004970C94461580915706909158060C9492
:102B20003C190E94D31508F481E00895E89409C087
:102B300097FB3EF490958095709561957F4F8F4FF0
:102B40009F4F9923A9F0F92F96E9BB279395F69506
:102B5000879577956795B795F111F8CFFAF4BB0F84
:102B600011F460FF1BC06F5F7F4F8F4F9F4F16C0E8
:102B7000882311F096E911C0772321F09EE8872F72
:102B8000762F05C0662371F096E8862F70E060E02E
:102B90002AF09A95660F771F881FDAF7880F9695A7
:102BA000879597F90895990F0008550FAA0BE0E84B
:102BB000FEEF16161706E807F907C0F012161306FF
:102BC000E407F50798F0621B730B840B950B39F43F
:102BD0000A2661F0232B242B252B21F408950A26A5
:102BE00009F4A140A6958FEF811D811D08950E94D3
:102BF0000A160C947B160E946D1638F00E9474160B
:102C000020F0952311F00C9464160C946A1611248C
:102C10000C94AF160E948C1670F3959FC1F3950F1C
:102C200050E0551F629FF001729FBB27F00DB11D50
:102C3000639FAA27F00DB11DAA1F649F6627B00DE0
:102C4000A11D661F829F2227B00DA11D621F739FC9
:102C5000B00DA11D621F839FA00D611D221F749FD7
:102C60003327A00D611D231F849F600D211D822F1E
:102C7000762F6A2F11249F5750409AF0F1F0882345
:102C80004AF0EE0FFF1FBB1F661F771F881F915072
:102C90005040A9F79E3F510580F00C9464160C94A7
:102CA000AF165F3FE4F3983ED4F38695779567952A
:102CB000B795F795E7959F5FC1F7FE2B880F911D9C
:102CC0009695879597F9089597F99F6780E870E042
:102CD00060E008959FEF80EC089500240A94161692
:102CE000170618060906089500240A9412161306FA
:102CF000140605060895092E0394000C11F4882388
:102D000052F0BB0F40F4BF2B11F460FF04C06F5FA3
:102D10007F4F8F4F9F4F089557FD9058440F551F79
:102D200059F05F3F71F04795880F97FB991F61F04D
:102D30009F3F79F087950895121613061406551FC4
:102D4000F2CF4695F1DF08C0161617061806991F30
:102D5000F1CF86957105610508940895E894BB2725
:102D600066277727CB0197F90895F999FECF92BD91
:102D700081BDF89A992780B50895262FF999FECF3D
:102D80001FBA92BD81BD20BD0FB6F894FA9AF99A88
:102D90000FBE019608952F923F924F925F926F92CD
:102DA0007F928F929F92AF92BF92CF92DF92EF92DB
:102DB000FF920F931F93CF93DF93CDB7DEB7CA1B5C
:102DC000DB0B0FB6F894DEBF0FBECDBF09942A8887
:102DD000398848885F846E847D848C849B84AA842F
:102DE000B984C884DF80EE80FD800C811B81AA81BC
:102DF000B981CE0FD11D0FB6F894DEBF0FBECDBF87
:102E0000ED010895A1E21A2EAA1BBB1BFD010DC006
:102E1000AA1FBB1FEE1FFF1FA217B307E407F5078A
:102E200020F0A21BB30BE40BF50B661F771F881F66
:102E3000991F1A9469F760957095809590959B01FC
:102E4000AC01BD01CF0108955058BB27AA270E94AD
:102E50003C170C947B160E946D1638F00E94741675
:102E600020F039F49F3F19F426F40C946A160EF4FE
:102E7000E095E7FB0C946416E92F0E948C1658F33A
:102E8000BA17620773078407950720F079F4A6F54F
:102E90000C94AE160EF4E0950B2EBA2FA02D0B015C
:102EA000B90190010C01CA01A0011124FF27591B8F
:102EB00099F0593F50F4503E68F11A16F040A22F95
:102EC000232F342F4427585FF3CF46953795279506
:102ED000A795F0405395C9F77EF41F16BA0B620B05
:102EE000730B840BBAF09150A1F0FF0FBB1F661F4C
:102EF000771F881FC2F70EC0BA0F621F731F841F8F
:102F000048F4879577956795B795F7959E3F08F0B4
:102F1000B0CF9395880F08F09927EE0F9795879576
:102F200008950E94A5170C947B160E94741658F001
:102F30000E946D1640F029F45F3F29F00C9464164E
:102F400051110C94AF160C946A160E948C1668F3FB
:102F50009923B1F3552391F3951B550BBB27AA2752
:102F600062177307840738F09F5F5F4F220F331F8C
:102F7000441FAA1FA9F335D00E2E3AF0E0E832D054
:102F800091505040E695001CCAF72BD0FE2F29D057
:102F9000660F771F881FBB1F261737074807AB0729
:102FA000B0E809F0BB0B802DBF01FF2793585F4F9E
:102FB0003AF09E3F510578F00C9464160C94AF16CD
:102FC0005F3FE4F3983ED4F3869577956795B79580
:102FD000F7959F5FC9F7880F911D9695879597F98B
:102FE0000895E1E0660F771F881FBB1F6217730704
:102FF0008407BA0720F0621B730B840BBA0BEE1F19
:1030000088F7E09508950E940A186894B1110C940D
:10301000AF1608950E94941688F09F5798F0B92F24
:103020009927B751B0F0E1F0660F771F881F991FFD
:103030001AF0BA95C9F714C0B13091F00E94AE16DB
:10304000B1E008950C94AE16672F782F8827B85FEB
:1030500039F0B93FCCF3869577956795B395D9F755
:103060003EF490958095709561957F4F8F4F9F4F5F
:1030700008950E94D31508F48FEF089519F416F4FB
:103080000C946A160C9489180E949416B8F399232C
:10309000C9F3B6F39F57550B87FF0E94971800247A
:1030A000A0E640EA900180585695979528F4805CF8
:1030B000660F771F881F20F026173707480730F460
:1030C000621B730B840B202931294A2BA695179478
:1030D0000794202531254A2758F7660F771F881F48
:1030E00020F026173707480730F4620B730B840B68
:1030F000200D311D411DA09581F7B901842F9158F4
:10310000880F9695879508950E94D315880B990B83
:1031100008959F3F31F0915020F4879577956795FA
:10312000B795880F911D9695879597F908959150B9
:103130005040660F771F881FD2F70895EE0FFF1FCC
:103140000590F491E02D09940F931F93CF93DF9393
:103150008230910510F482E090E0E091E106F09178
:10316000E20620E030E0A0E0B0E0309719F14081C5
:1031700051810281138148175907C8F084179507B8
:1031800069F4109731F012960C93129713961C93D2
:1031900027C00093E1061093E20622C021153105F5
:1031A00019F04217530718F49A01BD01EF01DF012E
:1031B000F801DBCF21153105F9F0281B390B24303C
:1031C000310580F48A819B816115710521F0FB0135
:1031D0009383828304C09093E2068093E106FE010C
:1031E000329644C0FE01E20FF31F81939193225067
:1031F0003109398328833AC02091DF063091E006F7
:10320000232B41F42091C6013091C7013093E00691
:103210002093DF062091C4013091C50121153105AD
:1032200041F42DB73EB74091C8015091C901241B0C
:10323000350BE091DF06F091E006E217F307A0F40A
:103240002E1B3F0B2817390778F0AC014E5F5F4FFC
:103250002417350748F04E0F5F1F5093E006409348
:10326000DF068193919302C0E0E0F0E0CF01DF91AF
:10327000CF911F910F910895CF93DF93009709F499
:1032800081C0FC01329713821282A091E106B091B5
:10329000E206109781F420813181820F931F2091E3
:1032A000DF063091E0062817390751F5F093E00664
:1032B000E093DF0667C0ED0120E030E0CE17DF07C6
:1032C00040F44A815B819E0141155105F1F0EA010C
:1032D000F5CFD383C28340815181840F951FC817D6
:1032E000D90759F488819981840F951F029691839B
:1032F00080838A819B81938382832115310529F400
:10330000F093E206E093E1063DC0E901FB83EA8326
:1033100049915991C40FD51FEC17FD0761F48081C5
:103320009181840F951F0296E90199838883828198
:1033300093819B838A83E0E0F0E012968D919C91CB
:103340001397009719F0FD01DC01F7CF8D919C9147
:1033500011979D012E5F3F4F820F931F2091DF0633
:103360003091E0062817390769F4309729F4109254
:10337000E2061092E10602C013821282B093E006C8
:10338000A093DF06DF91CF910895A0E0B0E0EBECD1
:10339000F9E10C94CF16EC01009721F4CB010E94C7
:1033A000A418B4C0FC01E60FF71F9C01225031099C
:1033B000E217F30708F4A8C0D9010D911C911197E9
:1033C00006171707B0F00530110508F49BC0C801B7
:1033D00004978617970708F495C002501109061B39
:1033E000170B019311936D937C93CF010E943C19AD
:1033F00089C05B01A01AB10A4C01800E911EA091F8
:10340000E106B091E206612C712CE12CF12C1097B1
:1034100009F446C08D919C911197A815B905B1F595
:103420006C0142E0C40ED11CCA14DB0478F14C01DB
:103430008A189B08640142E0C40ED11C1296BC900D
:1034400012971396AC91B5E0CB16D10440F0B2823E
:10345000A38391828082D9016D937C9309C00E5F12
:103460001F4F800F911FF90191838083EB2DFA2F5D
:10347000E114F10431F0D7011396FC93EE93129707
:1034800041C0F093E206E093E1063CC0681679067D
:1034900008F43C017D0112960D90BC91A02DB7CF90
:1034A0008091DF069091E00688169906E1F4661691
:1034B0007706C8F48091C4019091C501009741F44A
:1034C0008DB79EB74091C8015091C901841B950BDF
:1034D000E817F907C8F4F093E006E093DF06F90176
:1034E000718360830FC0CB010E94A4187C010097F8
:1034F00059F0A801BE010E94901ACE010E943C1909
:10350000C70104C0CE0102C080E090E0CDB7DEB7B5
:10351000EEE00C94EB1681E090E0F8940C94A01A85
:10352000FB01DC0102C001900D9241505040D8F7E0
:103530000895FB01DC0101900D920020E1F7089550
:1035400013E0C0E7D3E004C0FE010E949E1821965C
:0A355000C137D107C9F7F894FFCF87
:10355A00000070C1000070C1000070C1000070411D
:10356A00000070C1000070C100007041000070418D
:10357A00000070C1000070C100007041000070C1FD
:10358A00000070C1000070C100007041000070416D
:10359A00000070C1000070410000704100007041DD
:1035AA0000007041000070C10000704100007041CD
:1035BA00FFFFFFFFFFFFFFFF000000000000000009
:1035CA000000803F0000000081FD7F3F00000000F6
:1035DA00BEF90E3C0000000081FD7F3FBEF90E3CA3
:1035EA00000000000000000081FD7F3FBEF90EBC14
:1035FA00000000000000000081FD7F3F0000000085
:10360A00BEF90EBC0000000000E10000000000004E
:10361A00FFFFFFFF0000E3068000F1FFF1FFF1FF6B
:10362A000F00F1FFF1FF0F000F00F1FFF1FF0F0094
:10363A00F1FFF1FFF1FF0F000F00F1FF0F000F0084
:10364A000F000F00F1FF0F000F0000000000DA0367
:10365A005B04FB03F0034104FF031D0400000000A8
:10366A00810A3C0A7D0B7C0B4615FCFF000088157D
:10367A0000C1808100000051723D0051693D005136
:10368A006A3D00516B3D0043756C6C696E67446519
:10369A006D6F006E616E00696E66006F766600007F
:2070000055C000006EC000006CC000006AC0000068C0000066C0000064C0000062C0000043
:2070200060C000005EC00000F2C400005AC0000058C0000056C0000054C0000052C00000EE
:2070400050C0000078C000004CC000004AC0000048C0000046C0000044C0000042C00000BE
:2070600040C000003EC000003CC000003AC0000038C0000036C0000034C0000032C0000048
:2070800030C000002EC000002CC000002AC0000028C0000026C0000024C0000022C00000A8
:2070A00020C000001EC000001CC0000011241FBECFEFDAE0DEBFCDBF11E0A0E0B1E0E2E3BC
:2070C000FFE702C005900D92A83AB107D9F711E0A8EAB1E001C01D92AE3BB107E1F78FD30B
:2070E00026C78ECFF89410926F0010928100109285001092840081E085BF15BE47985D9AEB
:20710000289A0C94000008952091B2013091B3012F5F3F4F3093B3012093B201932F37FFA6
:2071200003C08EEF831B982F990F921710F447980895479A08951F920F920FB60F9211246E
:207140002F938F939F93EF93FF9310928500109284008091A8019091A901009741F00197D3
:207160009093A9018093A801892B09F45D9A8091AA019091AB01009741F001979093AB0126
:207180008093AA01892B09F4289AE0E0F0E0859194918F5F9F4F49F08091AC019091AD0151
:2071A00001969093AD018093AC01FF91EF919F918F912F910F900FBE0F901F90189584E0BC
:2071C0008093E9000DC08091E8008B778093E80003C08EB3882351F08091E80082FFF9CFBE
:2071E0008091E80085FFEFCF8091F1000895982F83E08093E9008091E80085FD0DC0809136
:20720000E8008E778093E80003C08EB3882369F08091E80080FFF9CF9093F1005D9884E6CB
:2072200090E09093A9018093A80108954F925F926F927F928F929F92AF92BF92CF92DF921E
:20724000EF92FF920F931F93CF93DF9384E08093E9008091E80082FF57C2289884E690E067
:207260009093AB018093AA01AADF182F853481F48CE49DE19093AD018093AC0107B600FC4B
:20728000FDCFF999FECF81E180935700E89503C0843519F494DF8DE00DC28C34E1F38035F9
:2072A000D1F3843721F484E4A2DF80E003C2813611F489E5FFC18134B1F481DF182F7FDFE3
:2072C00090E0880F991FAA2797FDA095BA2F312F330F20E0442737FD4095542F822B932B68
:2072E000A42BB52BB8C1803711F483E5E3C1833549F4C0E0D1E089917ADF21E0C730D20714
:20730000D1F7D9C1863521F481E371DF80E3D2C1833731F487E86BDF85E969DF8EE1CAC149
:207320008536B9F4E0E0F0E093E085E090935700E89507B600FCFDCF80935700E89507B65D
:2073400000FCFDCFE058FF4FA0E7E030FA0771F7A2CF823739F4E1E0F0E089E08093570024
:207360008491A8C1863439F4E0E0F0E089E08093570084919FC18E3439F4E3E0F0E089E0E5
:2073800080935700849196C1813539F4E2E0F0E089E08093570084918DC1823631F489E521
:2073A00026DF80E024DF80E885C1823419F0873609F0E5C01092AD011092AC0100DF082FE8
:2073C000FEDEF82EFCDE682E8554823008F071C1902F80E0CF2DD0E0C82BD92B10926F00B3
:2073E000173609F04BC081E180935700E895DD24CC24C3943FC0E090AE01F090AF010091CC
:20740000B0011091B101B6E46B16D9F4ED2DF0E0EE29FF29E4918E2FEADEDD2081F082E08D
:2074200090E0A0E0B0E0E80EF91E0A1F1B1FE092AE01F092AF010093B0011093B101DC2470
:2074400018C0D801C701B695A7959795879559D5CEDE82E090E0A0E0B0E0E80EF91E0A1FF2
:207460001B1FE092AE01F092AF010093B0011093B1012197209709F0BECF7DC08090AE01F5
:207480009090AF01A090B001B090B10196E4691609F05DC083E0F40180935700E89507B63E
:2074A00000FCFDCF54C0F6E46F1661F5772031F1E090AE01F090AF010091B0011091B1019E
:2074C0007EDED82ECC24852D90E08C299D29F7010C0140925700E895112482E090E0A0E08B
:2074E000B0E0E80EF91E0A1F1B1FE092AE01F092AF010093B0011093B10102C060DE582E1A
:20750000742423C0E090AE01F090AF010091B0011091B10116950795F794E79450DE682FFA
:20752000C701F7D48091AE019091AF01A091B001B091B1010296A11DB11D8093AE01909349
:20754000AF01A093B001B093B101219704C05524772444244394209709F0A5CF96E46916B6
:2075600041F485E0F40180935700E89507B600FCFDCF8DE03CDE82E080936F009CC0833492
:2075800071F40091AE011091AF0119DE90E021E0F8010C0120935700E89511247CCE8336C8
:2075A00019F5E090AE01F090AF010091B0011091B10105DEF701E16090E021E00C0120938C
:2075C0005700E895112482E090E0A0E0B0E0E80EF91E0A1F1B1FE092AE01F092AF0100936A
:2075E000B0011093B10157CE8D3661F4E091AE01F091AF0185E080935700E89507B600FCF2
:20760000FDCF49CE823551F4E091AE01F091AF0105911491812FEBDD802F4CC0843421F5FE
:20762000E090AE01F090AF010091B0011091B10116950795F794E794C2DD682FC70169D4DE
:207640008091AE019091AF01A091B001B091B1010296A11DB11D8093AE019093AF01A093D8
:20766000B001B093B10117CE843609F5E090AE01F090AF010091B0011091B101D801C70142
:20768000B695A795979587953CD4B1DD82E090E0A0E0B0E0E80EF91E0A1F1B1FE092AE010A
:2076A000F092AF010093B0011093B10104C08B3111F08FE39CDD83E08093E9009091E8002B
:2076C0008091E8008E778093E80095FF04C010C08EB38823C9F08091E80080FFF9CF809193
:2076E000E8008E778093E80003C08EB3882361F08091E80080FFF9CF84E08093E9008091F1
:20770000E8008B778093E800DF91CF911F910F91FF90EF90DF90CF90BF90AF909F908F90AC
:207720007F906F905F904F9008959091B601892F8F77813249F58091B7018032A1F081328A
:2077400019F5913A09F58091E800877F8093E8008DE091E067E070E00BD28091E8008B770B
:207760008093E8000895913279F48091E800877F8093E8008DE091E067E070E05DD2809192
:20778000E8008E778093E800089582E061EC42E0B5D083E061E842E1B1D084E060E842E1EF
:2077A000ADC084B7877F84BF88E10FB6F89480936000109260000FBE20E880E090E00FB63F
:2077C000F89420936100809361000FBE81E085BF92E095BF3F9A209A559AE1E6F0E02083A1
:2077E000108247985D9A289A109289008AEF8093880090936F0083E080938100F0C0409116
:20780000000850910108109201081092000894B714BE88E10FB6F8948093600010926000D5
:207820000FBE292F30E0F901E270F07091FD18C090FF05C0859194918F5F9F4F81F423FFFF
:207840000FC08091090190910A014817590741F0E0E0F0E0859194918F5F9F4F09F042DC64
:20786000A0DF78941092AD011092AC010CC0DEDC36D38091AC019091AD0181549F4110F00D
:207880001092140141DC80911401882381F78091E00081608093E00025DC80E090E0089598
:2078A000FA01923049F0933061F09130F9F485E191E022E130E01EC087E291E02EE330E04D
:2078C00019C0882329F485E691E024E030E012C0813029F489E691E022E230E00BC0823006
:2078E00029F48DE891E028E130E004C080E090E020E030E091838083C90108958093E9004E
:207900008091EB0081608093EB001092ED006093EC004093ED008091EE00881F8827881F62
:2079200008958091B60188238CF403C08EB38823B1F08091E80082FFF9CF8091E8008B772A
:207940008093E80008958EB3882349F08091E80080FFF9CF8091E8008E778093E800089594
:20796000EF92FF920F931F9345D04CD008ED10E0F80180818F77808380818068808380819B
:207980008F7D808319BC1EBA1092B40180EEE82EF12CF70180818B7F8083F8018081816052
:2079A000808380E060E042E0A9DFE1EEF0E080818E7F8083E2EEF0E0808181608083808144
:2079C00088608083F70180818E7F8083F8018081806180831F910F91FF90EF900895E7ED06
:2079E000F0E08081816080838AE482BF81E08093B501B6CFE8EDF0E080818E7F808310921C
:207A0000E20008951092DA001092E10008951F920F920FB60F9211242F933F934F935F93F6
:207A20006F937F938F939F93AF93BF93EF93FF938091DA0080FF1BC08091D80080FF17C0B2
:207A40008091DA008E7F8093DA008091D90080FF0BC080E189BD82E189BD09B400FEFDCF36
:207A600081E08EBB3BD203C019BC1EBA37D28091E10080FF17C08091E20080FF13C0809138
:207A8000E2008E7F8093E2008091E20080618093E2008091D80080628093D80019BC85E049
:207AA0008EBB1CD28091E10084FF2CC08091E20084FF28C080E189BD82E189BD09B400FEC5
:207AC000FDCF8091D8008F7D8093D8008091E1008F7E8093E1008091E2008F7E8093E20012
:207AE0008091E20081608093E2008091B401882331F48091E30087FD02C081E001C084E067
:207B00008EBBECD18091E10083FF21C08091E20083FF1DC08091E100877F8093E10082E06A
:207B20008EBB1092B4018091E1008E7F8093E1008091E2008E7F8093E2008091E2008061E9
:207B40008093E20080E060E042E0D8DEC7D1FF91EF91BF91AF919F918F917F916F915F9130
:207B60004F913F912F910F900FBE0F901F9018959C014091BC015091BD014617570718F49D
:207B8000F90190E044C06115710511F0AB01F8CF8091E8008E778093E80040E050E0F0CF0F
:207BA0008EB3882309F444C0853009F443C08091E80083FF02C081E008958091E80082FD70
:207BC00031C08091E80080FF22C08091F3009091F200782F60E0292F30E0262B372B07C07A
:207BE00081918093F100415050402F5F3F4F4115510519F02830310598F390E02830310566
:207C000009F491E08091E8008E778093E8004115510531F6992321F605C08EB3882341F075
:207C2000853041F08091E80082FFF7CF80E0089582E0089583E008959C016115710529F47C
:207C40008091E8008B778093E800F90126C08EB3882391F1853091F18091E80083FF02C06C
:207C600081E008958091E80082FFF1CF06C08091F10081936150704059F02091F300809191
:207C8000F200322F20E090E0822B932B892B79F78091E8008B778093E80061157105B9F601
:207CA00005C08EB3882341F0853041F08091E80080FFF7CF80E0089582E0089583E00895C2
:207CC0000F931F93DF93CF9300D0CDB7DEB7E6EBF1E08091F100819381E0EE3BF807C9F792
:207CE00024DD8091E80083FFE4C08091B6019091B701953009F46DC0963040F4913081F1A7
:207D0000913070F0933009F0D4C02AC0983009F4A3C0993009F4B2C0963009F0CAC07CC023
:207D2000803809F4C6C0823809F0C3C08091BA0187708093E9008091EB001092E9002091DB
:207D4000E800277F2093E80090E025E0969587952A95E1F781708093F1001092F10087C0D8
:207D6000882319F0823009F0A4C08F71823009F0A0C08091B801882331F52091BA01277097
:207D800009F497C02093E9008091EB0080FF1BC0933021F48091EB00806213C08091EB0018
:207DA00080618093EB0081E090E002C0880F991F2A95E2F78093EA001092EA008091EB00E5
:207DC00088608093EB001092E9008091E800877F51C0882309F06DC01091B8011F770FB79B
:207DE000F8948091E800877F8093E8009ADD8091E80080FFFCCF8091E3008078812B809398
:207E0000E30080688093E300112311F482E001C083E08EBB0FBF4DC08058823008F049C033
:207E20008091B8019091B9016091BA01AE014F5F5F4F36DDBC01009709F43BC08091E8008E
:207E4000877F8093E80089819A8192DE8091E8008B778093E8002DC0803859F58091E800AA
:207E6000877F8093E8008091B4018093F1008091E8008E778093E80054DD1BC08823C9F4CA
:207E80009091B8019230A8F48091E800877F8093E8009093B40145DD8091B401882331F420
:207EA0008091E30087FD02C081E001C084E08EBB6CDC8091E80083FF0AC08091EB0080624E
:207EC0008093EB008091E800877F8093E8000F900F90CF91DF911F910F91089508951F9360
:207EE0008EB3882361F01091E9001092E9008091E80083FF01C0E4DE17701093E9001F916F
:207F00000895F999FECF92BD81BDF89A992780B50895262FF999FECF1FBA92BD81BD20BDBD
:207F20000FB6F894FA9AF99A0FBE01960895F894FFCF4341544552494E4100777700080031
:207F40000000000000080112011001020000084123360001000201000109023E00020100FF
:207F600080320904000001020201000524001001042402040524060001070582030800FF0C
:207F800009040100020A000000070504021000010705830210000104030904220341007216
:207FA000006400750069006E006F0020004C0065006F006E006100720064006F0000001836
:1A7FC00003410072006400750069006E006F0020004C004C004300000000D7
:00000001FF
